{
  "_format": "hh-sol-artifact-1",
  "contractName": "IdentityManager",
  "sourceName": "contracts/IdentityManager.sol",
  "abi": [
    {
      "inputs": [],
      "stateMutability": "nonpayable",
      "type": "constructor"
    },
    {
      "anonymous": false,
      "inputs": [
        {
          "indexed": false,
          "internalType": "string",
          "name": "orgID",
          "type": "string"
        },
        {
          "indexed": false,
          "internalType": "address",
          "name": "owner",
          "type": "address"
        }
      ],
      "name": "DIDRegistered",
      "type": "event"
    },
    {
      "anonymous": false,
      "inputs": [
        {
          "indexed": false,
          "internalType": "string",
          "name": "orgID",
          "type": "string"
        },
        {
          "indexed": false,
          "internalType": "address",
          "name": "issuer",
          "type": "address"
        }
      ],
      "name": "IssuerAuthorized",
      "type": "event"
    },
    {
      "anonymous": false,
      "inputs": [
        {
          "indexed": false,
          "internalType": "address",
          "name": "verifier",
          "type": "address"
        },
        {
          "indexed": false,
          "internalType": "bool",
          "name": "allowed",
          "type": "bool"
        }
      ],
      "name": "TrustedVerifierSet",
      "type": "event"
    },
    {
      "anonymous": false,
      "inputs": [
        {
          "indexed": false,
          "internalType": "string",
          "name": "orgID",
          "type": "string"
        },
        {
          "indexed": false,
          "internalType": "bytes32",
          "name": "hashCredential",
          "type": "bytes32"
        },
        {
          "indexed": false,
          "internalType": "address",
          "name": "issuer",
          "type": "address"
        }
      ],
      "name": "VCCreated",
      "type": "event"
    },
    {
      "anonymous": false,
      "inputs": [
        {
          "indexed": false,
          "internalType": "string",
          "name": "orgID",
          "type": "string"
        },
        {
          "indexed": false,
          "internalType": "uint256",
          "name": "index",
          "type": "uint256"
        }
      ],
      "name": "VCRevoked",
      "type": "event"
    },
    {
      "anonymous": false,
      "inputs": [
        {
          "indexed": false,
          "internalType": "string",
          "name": "orgID",
          "type": "string"
        },
        {
          "indexed": false,
          "internalType": "uint256",
          "name": "index",
          "type": "uint256"
        },
        {
          "indexed": false,
          "internalType": "address",
          "name": "verifier",
          "type": "address"
        }
      ],
      "name": "VCVerified",
      "type": "event"
    },
    {
      "inputs": [],
      "name": "admin",
      "outputs": [
        {
          "internalType": "address",
          "name": "",
          "type": "address"
        }
      ],
      "stateMutability": "view",
      "type": "function"
    },
    {
      "inputs": [
        {
          "internalType": "string",
          "name": "orgID",
          "type": "string"
        },
        {
          "internalType": "address",
          "name": "issuer",
          "type": "address"
        }
      ],
      "name": "authorizeIssuer",
      "outputs": [],
      "stateMutability": "nonpayable",
      "type": "function"
    },
    {
      "inputs": [
        {
          "internalType": "string",
          "name": "",
          "type": "string"
        },
        {
          "internalType": "address",
          "name": "",
          "type": "address"
        }
      ],
      "name": "authorizedIssuers",
      "outputs": [
        {
          "internalType": "bool",
          "name": "",
          "type": "bool"
        }
      ],
      "stateMutability": "view",
      "type": "function"
    },
    {
      "inputs": [
        {
          "internalType": "string",
          "name": "",
          "type": "string"
        },
        {
          "internalType": "uint256",
          "name": "",
          "type": "uint256"
        }
      ],
      "name": "credentials",
      "outputs": [
        {
          "internalType": "bytes32",
          "name": "hashCredential",
          "type": "bytes32"
        },
        {
          "internalType": "string",
          "name": "uri",
          "type": "string"
        },
        {
          "internalType": "address",
          "name": "issuer",
          "type": "address"
        },
        {
          "internalType": "bool",
          "name": "valid",
          "type": "bool"
        },
        {
          "internalType": "uint256",
          "name": "expirationDate",
          "type": "uint256"
        },
        {
          "internalType": "uint256",
          "name": "issuedAt",
          "type": "uint256"
        },
        {
          "internalType": "bool",
          "name": "verified",
          "type": "bool"
        },
        {
          "internalType": "address",
          "name": "verifier",
          "type": "address"
        },
        {
          "internalType": "uint256",
          "name": "verifiedAt",
          "type": "uint256"
        }
      ],
      "stateMutability": "view",
      "type": "function"
    },
    {
      "inputs": [
        {
          "internalType": "string",
          "name": "orgID",
          "type": "string"
        }
      ],
      "name": "deactivateDID",
      "outputs": [],
      "stateMutability": "nonpayable",
      "type": "function"
    },
    {
      "inputs": [
        {
          "internalType": "string",
          "name": "",
          "type": "string"
        }
      ],
      "name": "dids",
      "outputs": [
        {
          "internalType": "address",
          "name": "owner",
          "type": "address"
        },
        {
          "internalType": "bytes32",
          "name": "hashData",
          "type": "bytes32"
        },
        {
          "internalType": "string",
          "name": "uri",
          "type": "string"
        },
        {
          "internalType": "bool",
          "name": "active",
          "type": "bool"
        }
      ],
      "stateMutability": "view",
      "type": "function"
    },
    {
      "inputs": [
        {
          "internalType": "string",
          "name": "orgID",
          "type": "string"
        },
        {
          "internalType": "uint256",
          "name": "index",
          "type": "uint256"
        }
      ],
      "name": "getVC",
      "outputs": [
        {
          "internalType": "bytes32",
          "name": "hashCredential",
          "type": "bytes32"
        },
        {
          "internalType": "string",
          "name": "uri",
          "type": "string"
        },
        {
          "internalType": "address",
          "name": "issuer",
          "type": "address"
        },
        {
          "internalType": "bool",
          "name": "valid",
          "type": "bool"
        },
        {
          "internalType": "uint256",
          "name": "expirationDate",
          "type": "uint256"
        },
        {
          "internalType": "uint256",
          "name": "issuedAt",
          "type": "uint256"
        },
        {
          "internalType": "bool",
          "name": "verified",
          "type": "bool"
        },
        {
          "internalType": "address",
          "name": "verifier",
          "type": "address"
        },
        {
          "internalType": "uint256",
          "name": "verifiedAt",
          "type": "uint256"
        }
      ],
      "stateMutability": "view",
      "type": "function"
    },
    {
      "inputs": [
        {
          "internalType": "string",
          "name": "orgID",
          "type": "string"
        }
      ],
      "name": "getVCLength",
      "outputs": [
        {
          "internalType": "uint256",
          "name": "",
          "type": "uint256"
        }
      ],
      "stateMutability": "view",
      "type": "function"
    },
    {
      "inputs": [
        {
          "internalType": "string",
          "name": "orgID",
          "type": "string"
        },
        {
          "internalType": "bytes32",
          "name": "hashCredential",
          "type": "bytes32"
        },
        {
          "internalType": "string",
          "name": "uri",
          "type": "string"
        }
      ],
      "name": "issueVC",
      "outputs": [],
      "stateMutability": "nonpayable",
      "type": "function"
    },
    {
      "inputs": [
        {
          "internalType": "string",
          "name": "orgID",
          "type": "string"
        },
        {
          "internalType": "bytes32",
          "name": "hashCredential",
          "type": "bytes32"
        },
        {
          "internalType": "string",
          "name": "uri",
          "type": "string"
        },
        {
          "internalType": "uint256",
          "name": "expirationDate",
          "type": "uint256"
        }
      ],
      "name": "issueVCWithExpiration",
      "outputs": [],
      "stateMutability": "nonpayable",
      "type": "function"
    },
    {
      "inputs": [
        {
          "internalType": "string",
          "name": "orgID",
          "type": "string"
        },
        {
          "internalType": "bytes32",
          "name": "hashData",
          "type": "bytes32"
        },
        {
          "internalType": "string",
          "name": "uri",
          "type": "string"
        }
      ],
      "name": "registerDID",
      "outputs": [],
      "stateMutability": "nonpayable",
      "type": "function"
    },
    {
      "inputs": [
        {
          "internalType": "string",
          "name": "orgID",
          "type": "string"
        },
        {
          "internalType": "uint256",
          "name": "index",
          "type": "uint256"
        }
      ],
      "name": "revokeVC",
      "outputs": [],
      "stateMutability": "nonpayable",
      "type": "function"
    },
    {
      "inputs": [
        {
          "internalType": "address",
          "name": "newAdmin",
          "type": "address"
        }
      ],
      "name": "setAdmin",
      "outputs": [],
      "stateMutability": "nonpayable",
      "type": "function"
    },
    {
      "inputs": [
        {
          "internalType": "address",
          "name": "verifier",
          "type": "address"
        },
        {
          "internalType": "bool",
          "name": "allowed",
          "type": "bool"
        }
      ],
      "name": "setTrustedVerifier",
      "outputs": [],
      "stateMutability": "nonpayable",
      "type": "function"
    },
    {
      "inputs": [
        {
          "internalType": "address",
          "name": "",
          "type": "address"
        }
      ],
      "name": "trustedVerifiers",
      "outputs": [
        {
          "internalType": "bool",
          "name": "",
          "type": "bool"
        }
      ],
      "stateMutability": "view",
      "type": "function"
    },
    {
      "inputs": [
        {
          "internalType": "string",
          "name": "orgID",
          "type": "string"
        },
        {
          "internalType": "bytes32",
          "name": "newHash",
          "type": "bytes32"
        },
        {
          "internalType": "string",
          "name": "newUri",
          "type": "string"
        }
      ],
      "name": "updateDID",
      "outputs": [],
      "stateMutability": "nonpayable",
      "type": "function"
    },
    {
      "inputs": [
        {
          "internalType": "string",
          "name": "orgID",
          "type": "string"
        },
        {
          "internalType": "uint256",
          "name": "index",
          "type": "uint256"
        }
      ],
      "name": "verifyCredential",
      "outputs": [],
      "stateMutability": "nonpayable",
      "type": "function"
    },
    {
      "inputs": [
        {
          "internalType": "string",
          "name": "orgID",
          "type": "string"
        },
        {
          "internalType": "uint256",
          "name": "index",
          "type": "uint256"
        },
        {
          "internalType": "bytes32",
          "name": "providedHash",
          "type": "bytes32"
        }
      ],
      "name": "verifyVC",
      "outputs": [
        {
          "internalType": "bool",
          "name": "",
          "type": "bool"
        }
      ],
      "stateMutability": "view",
      "type": "function"
    }
  ],
  "bytecode": "0x608060405234801561001057600080fd5b5033600460006101000a81548173ffffffffffffffffffffffffffffffffffffffff021916908373ffffffffffffffffffffffffffffffffffffffff160217905550612c29806100616000396000f3fe608060405234801561001057600080fd5b50600436106101165760003560e01c8063700a6702116100a25780639ae931a2116100715780639ae931a2146102e7578063bf4ce54e14610317578063e3b59a4414610333578063f44ab51614610363578063f851a4401461039657610116565b8063700a67021461025b578063704b6c02146102775780637586f9651461029357806376c3bbc3146102af57610116565b80633b253b23116100e95780633b253b23146101bb5780634cfc90f8146101d757806354f93e2e146102075780635cdc40a2146102235780636db45c611461023f57610116565b80630d963ae11461011b5780630fdb160614610137578063263198331461016f5780632e1fe63d1461019f575b600080fd5b61013560048036038101906101309190611cff565b6103b4565b005b610151600480360381019061014c9190611dc0565b6104bf565b60405161016699989796959493929190611f15565b60405180910390f35b61018960048036038101906101849190611fd5565b610622565b6040516101969190612002565b60405180910390f35b6101b960048036038101906101b49190611cff565b610642565b005b6101d560048036038101906101d0919061201d565b610654565b005b6101f160048036038101906101ec9190612066565b610741565b6040516101fe9190612002565b60405180910390f35b610221600480360381019061021c9190612101565b6109db565b005b61023d60048036038101906102389190612141565b610aff565b005b61025960048036038101906102549190611dc0565b610e97565b005b61027560048036038101906102709190611dc0565b611114565b005b610291600480360381019061028c9190611fd5565b6112bf565b005b6102ad60048036038101906102a89190611cff565b611402565b005b6102c960048036038101906102c49190611dc0565b6115d2565b6040516102de99989796959493929190611f15565b60405180910390f35b61030160048036038101906102fc919061201d565b61187c565b60405161030e91906121e0565b60405180910390f35b610331600480360381019061032c91906121fb565b6118a7565b005b61034d600480360381019061034891906121fb565b611a09565b60405161035a9190612002565b60405180910390f35b61037d6004803603810190610378919061201d565b611a4e565b60405161038d9493929190612257565b60405180910390f35b61039e611b49565b6040516103ab91906122a3565b60405180910390f35b823373ffffffffffffffffffffffffffffffffffffffff166000826040516103dc91906122fa565b908152602001604051809103902060000160009054906101000a900473ffffffffffffffffffffffffffffffffffffffff1673ffffffffffffffffffffffffffffffffffffffff1614610464576040517f08c379a000000000000000000000000000000000000000000000000000000000815260040161045b90612383565b60405180910390fd5b8260008560405161047591906122fa565b9081526020016040518091039020600101819055508160008560405161049b91906122fa565b908152602001604051809103902060020190816104b891906125af565b5050505050565b60018280516020810182018051848252602083016020850120818352809550505050505081815481106104f157600080fd5b90600052602060002090600702016000915091505080600001549080600101805461051b906123d2565b80601f0160208091040260200160405190810160405280929190818152602001828054610547906123d2565b80156105945780601f1061056957610100808354040283529160200191610594565b820191906000526020600020905b81548152906001019060200180831161057757829003601f168201915b5050505050908060020160009054906101000a900473ffffffffffffffffffffffffffffffffffffffff16908060020160149054906101000a900460ff16908060030154908060040154908060050160009054906101000a900460ff16908060050160019054906101000a900473ffffffffffffffffffffffffffffffffffffffff16908060060154905089565b60036020528060005260406000206000915054906101000a900460ff1681565b61064f8383836000610aff565b505050565b803373ffffffffffffffffffffffffffffffffffffffff1660008260405161067c91906122fa565b908152602001604051809103902060000160009054906101000a900473ffffffffffffffffffffffffffffffffffffffff1673ffffffffffffffffffffffffffffffffffffffff1614610704576040517f08c379a00000000000000000000000000000000000000000000000000000000081526004016106fb90612383565b60405180910390fd5b6000808360405161071591906122fa565b908152602001604051809103902060030160006101000a81548160ff0219169083151502179055505050565b600060018460405161075391906122fa565b90815260200160405180910390208054905083106107a6576040517f08c379a000000000000000000000000000000000000000000000000000000000815260040161079d906126cd565b60405180910390fd5b60006001856040516107b891906122fa565b908152602001604051809103902084815481106107d8576107d76126ed565b5b9060005260206000209060070201604051806101200160405290816000820154815260200160018201805461080c906123d2565b80601f0160208091040260200160405190810160405280929190818152602001828054610838906123d2565b80156108855780601f1061085a57610100808354040283529160200191610885565b820191906000526020600020905b81548152906001019060200180831161086857829003601f168201915b505050505081526020016002820160009054906101000a900473ffffffffffffffffffffffffffffffffffffffff1673ffffffffffffffffffffffffffffffffffffffff1673ffffffffffffffffffffffffffffffffffffffff1681526020016002820160149054906101000a900460ff1615151515815260200160038201548152602001600482015481526020016005820160009054906101000a900460ff161515151581526020016005820160019054906101000a900473ffffffffffffffffffffffffffffffffffffffff1673ffffffffffffffffffffffffffffffffffffffff1673ffffffffffffffffffffffffffffffffffffffff168152602001600682015481525050905080606001516109a35760009150506109d4565b600081608001511180156109ba5750806080015142115b156109c95760009150506109d4565b828160000151149150505b9392505050565b600460009054906101000a900473ffffffffffffffffffffffffffffffffffffffff1673ffffffffffffffffffffffffffffffffffffffff163373ffffffffffffffffffffffffffffffffffffffff1614610a6b576040517f08c379a0000000000000000000000000000000000000000000000000000000008152600401610a629061278e565b60405180910390fd5b80600360008473ffffffffffffffffffffffffffffffffffffffff1673ffffffffffffffffffffffffffffffffffffffff16815260200190815260200160002060006101000a81548160ff0219169083151502179055507f703759ee9e6445e9bc12af04229976bd04f5ea56ad56bddc62950786fc6ec9c78282604051610af39291906127ae565b60405180910390a15050565b600084604051610b0f91906122fa565b908152602001604051809103902060030160009054906101000a900460ff16610b6d576040517f08c379a0000000000000000000000000000000000000000000000000000000008152600401610b6490612823565b60405180910390fd5b600284604051610b7d91906122fa565b908152602001604051809103902060003373ffffffffffffffffffffffffffffffffffffffff1673ffffffffffffffffffffffffffffffffffffffff16815260200190815260200160002060009054906101000a900460ff1680610c4d5750600084604051610bec91906122fa565b908152602001604051809103902060000160009054906101000a900473ffffffffffffffffffffffffffffffffffffffff1673ffffffffffffffffffffffffffffffffffffffff163373ffffffffffffffffffffffffffffffffffffffff16145b610c8c576040517f08c379a0000000000000000000000000000000000000000000000000000000008152600401610c83906128b5565b60405180910390fd5b600184604051610c9c91906122fa565b90815260200160405180910390206040518061012001604052808581526020018481526020013373ffffffffffffffffffffffffffffffffffffffff168152602001600115158152602001838152602001428152602001600015158152602001600073ffffffffffffffffffffffffffffffffffffffff16815260200160008152509080600181540180825580915050600190039060005260206000209060070201600090919091909150600082015181600001556020820151816001019081610d6691906125af565b5060408201518160020160006101000a81548173ffffffffffffffffffffffffffffffffffffffff021916908373ffffffffffffffffffffffffffffffffffffffff16021790555060608201518160020160146101000a81548160ff0219169083151502179055506080820151816003015560a0820151816004015560c08201518160050160006101000a81548160ff02191690831515021790555060e08201518160050160016101000a81548173ffffffffffffffffffffffffffffffffffffffff021916908373ffffffffffffffffffffffffffffffffffffffff160217905550610100820151816006015550507f61d8024384cc7a0975067e55e89fbd854cfc28478f9ee9be8feb1c92009dde7b848433604051610e89939291906128d5565b60405180910390a150505050565b600360003373ffffffffffffffffffffffffffffffffffffffff1673ffffffffffffffffffffffffffffffffffffffff16815260200190815260200160002060009054906101000a900460ff16610f23576040517f08c379a0000000000000000000000000000000000000000000000000000000008152600401610f1a90612985565b60405180910390fd5b600182604051610f3391906122fa565b9081526020016040518091039020805490508110610f86576040517f08c379a0000000000000000000000000000000000000000000000000000000008152600401610f7d906126cd565b60405180910390fd5b6000600183604051610f9891906122fa565b90815260200160405180910390208281548110610fb857610fb76126ed565b5b906000526020600020906007020190508060020160149054906101000a900460ff16611019576040517f08c379a0000000000000000000000000000000000000000000000000000000008152600401611010906129f1565b60405180910390fd5b8060050160009054906101000a900460ff161561106b576040517f08c379a000000000000000000000000000000000000000000000000000000000815260040161106290612a5d565b60405180910390fd5b60018160050160006101000a81548160ff021916908315150217905550338160050160016101000a81548173ffffffffffffffffffffffffffffffffffffffff021916908373ffffffffffffffffffffffffffffffffffffffff1602179055504281600601819055507f2e65ebc3f4797e3f3fab76219c8b8949c6b67513964509f8cc282c50bc3ddc2583833360405161110793929190612a7d565b60405180910390a1505050565b813373ffffffffffffffffffffffffffffffffffffffff1660008260405161113c91906122fa565b908152602001604051809103902060000160009054906101000a900473ffffffffffffffffffffffffffffffffffffffff1673ffffffffffffffffffffffffffffffffffffffff16146111c4576040517f08c379a00000000000000000000000000000000000000000000000000000000081526004016111bb90612383565b60405180910390fd5b6001836040516111d491906122fa565b9081526020016040518091039020805490508210611227576040517f08c379a000000000000000000000000000000000000000000000000000000000815260040161121e906126cd565b60405180910390fd5b600060018460405161123991906122fa565b90815260200160405180910390208381548110611259576112586126ed565b5b906000526020600020906007020160020160146101000a81548160ff0219169083151502179055507f487aeade94d29c4cb9f41ec752a329b67cd5d3c1a5628e8064b48042d0a33c8e83836040516112b2929190612abb565b60405180910390a1505050565b600460009054906101000a900473ffffffffffffffffffffffffffffffffffffffff1673ffffffffffffffffffffffffffffffffffffffff163373ffffffffffffffffffffffffffffffffffffffff161461134f576040517f08c379a00000000000000000000000000000000000000000000000000000000081526004016113469061278e565b60405180910390fd5b600073ffffffffffffffffffffffffffffffffffffffff168173ffffffffffffffffffffffffffffffffffffffff16036113be576040517f08c379a00000000000000000000000000000000000000000000000000000000081526004016113b590612b37565b60405180910390fd5b80600460006101000a81548173ffffffffffffffffffffffffffffffffffffffff021916908373ffffffffffffffffffffffffffffffffffffffff16021790555050565b600073ffffffffffffffffffffffffffffffffffffffff1660008460405161142a91906122fa565b908152602001604051809103902060000160009054906101000a900473ffffffffffffffffffffffffffffffffffffffff1673ffffffffffffffffffffffffffffffffffffffff16146114b2576040517f08c379a00000000000000000000000000000000000000000000000000000000081526004016114a990612ba3565b60405180910390fd5b60405180608001604052803373ffffffffffffffffffffffffffffffffffffffff168152602001838152602001828152602001600115158152506000846040516114fc91906122fa565b908152602001604051809103902060008201518160000160006101000a81548173ffffffffffffffffffffffffffffffffffffffff021916908373ffffffffffffffffffffffffffffffffffffffff16021790555060208201518160010155604082015181600201908161157091906125af565b5060608201518160030160006101000a81548160ff0219169083151502179055509050507fd59e4d670f6e249831d6f8ce560f47ced54b3f4203e2d0050dc495fd6b919dd283336040516115c5929190612bc3565b60405180910390a1505050565b60006060600080600080600080600060018b6040516115f191906122fa565b9081526020016040518091039020805490508a10611644576040517f08c379a000000000000000000000000000000000000000000000000000000000815260040161163b906126cd565b60405180910390fd5b600060018c60405161165691906122fa565b90815260200160405180910390208b81548110611676576116756126ed565b5b906000526020600020906007020160405180610120016040529081600082015481526020016001820180546116aa906123d2565b80601f01602080910402602001604051908101604052809291908181526020018280546116d6906123d2565b80156117235780601f106116f857610100808354040283529160200191611723565b820191906000526020600020905b81548152906001019060200180831161170657829003601f168201915b505050505081526020016002820160009054906101000a900473ffffffffffffffffffffffffffffffffffffffff1673ffffffffffffffffffffffffffffffffffffffff1673ffffffffffffffffffffffffffffffffffffffff1681526020016002820160149054906101000a900460ff1615151515815260200160038201548152602001600482015481526020016005820160009054906101000a900460ff161515151581526020016005820160019054906101000a900473ffffffffffffffffffffffffffffffffffffffff1673ffffffffffffffffffffffffffffffffffffffff1673ffffffffffffffffffffffffffffffffffffffff1681526020016006820154815250509050806000015181602001518260400151836060015184608001518560a001518660c001518760e00151886101000151995099509950995099509950995099509950509295985092959850929598565b600060018260405161188e91906122fa565b9081526020016040518091039020805490509050919050565b813373ffffffffffffffffffffffffffffffffffffffff166000826040516118cf91906122fa565b908152602001604051809103902060000160009054906101000a900473ffffffffffffffffffffffffffffffffffffffff1673ffffffffffffffffffffffffffffffffffffffff1614611957576040517f08c379a000000000000000000000000000000000000000000000000000000000815260040161194e90612383565b60405180910390fd5b600160028460405161196991906122fa565b908152602001604051809103902060008473ffffffffffffffffffffffffffffffffffffffff1673ffffffffffffffffffffffffffffffffffffffff16815260200190815260200160002060006101000a81548160ff0219169083151502179055507f856abbe6e67b944503a2c4eb69aab351e076728737a07476cea9b4e86ee9ad4a83836040516119fc929190612bc3565b60405180910390a1505050565b6002828051602081018201805184825260208301602085012081835280955050505050506020528060005260406000206000915091509054906101000a900460ff1681565b6000818051602081018201805184825260208301602085012081835280955050505050506000915090508060000160009054906101000a900473ffffffffffffffffffffffffffffffffffffffff1690806001015490806002018054611ab3906123d2565b80601f0160208091040260200160405190810160405280929190818152602001828054611adf906123d2565b8015611b2c5780601f10611b0157610100808354040283529160200191611b2c565b820191906000526020600020905b815481529060010190602001808311611b0f57829003601f168201915b5050505050908060030160009054906101000a900460ff16905084565b600460009054906101000a900473ffffffffffffffffffffffffffffffffffffffff1681565b6000604051905090565b600080fd5b600080fd5b600080fd5b600080fd5b6000601f19601f8301169050919050565b7f4e487b7100000000000000000000000000000000000000000000000000000000600052604160045260246000fd5b611bd682611b8d565b810181811067ffffffffffffffff82111715611bf557611bf4611b9e565b5b80604052505050565b6000611c08611b6f565b9050611c148282611bcd565b919050565b600067ffffffffffffffff821115611c3457611c33611b9e565b5b611c3d82611b8d565b9050602081019050919050565b82818337600083830152505050565b6000611c6c611c6784611c19565b611bfe565b905082815260208101848484011115611c8857611c87611b88565b5b611c93848285611c4a565b509392505050565b600082601f830112611cb057611caf611b83565b5b8135611cc0848260208601611c59565b91505092915050565b6000819050919050565b611cdc81611cc9565b8114611ce757600080fd5b50565b600081359050611cf981611cd3565b92915050565b600080600060608486031215611d1857611d17611b79565b5b600084013567ffffffffffffffff811115611d3657611d35611b7e565b5b611d4286828701611c9b565b9350506020611d5386828701611cea565b925050604084013567ffffffffffffffff811115611d7457611d73611b7e565b5b611d8086828701611c9b565b9150509250925092565b6000819050919050565b611d9d81611d8a565b8114611da857600080fd5b50565b600081359050611dba81611d94565b92915050565b60008060408385031215611dd757611dd6611b79565b5b600083013567ffffffffffffffff811115611df557611df4611b7e565b5b611e0185828601611c9b565b9250506020611e1285828601611dab565b9150509250929050565b611e2581611cc9565b82525050565b600081519050919050565b600082825260208201905092915050565b60005b83811015611e65578082015181840152602081019050611e4a565b60008484015250505050565b6000611e7c82611e2b565b611e868185611e36565b9350611e96818560208601611e47565b611e9f81611b8d565b840191505092915050565b600073ffffffffffffffffffffffffffffffffffffffff82169050919050565b6000611ed582611eaa565b9050919050565b611ee581611eca565b82525050565b60008115159050919050565b611f0081611eeb565b82525050565b611f0f81611d8a565b82525050565b600061012082019050611f2b600083018c611e1c565b8181036020830152611f3d818b611e71565b9050611f4c604083018a611edc565b611f596060830189611ef7565b611f666080830188611f06565b611f7360a0830187611f06565b611f8060c0830186611ef7565b611f8d60e0830185611edc565b611f9b610100830184611f06565b9a9950505050505050505050565b611fb281611eca565b8114611fbd57600080fd5b50565b600081359050611fcf81611fa9565b92915050565b600060208284031215611feb57611fea611b79565b5b6000611ff984828501611fc0565b91505092915050565b60006020820190506120176000830184611ef7565b92915050565b60006020828403121561203357612032611b79565b5b600082013567ffffffffffffffff81111561205157612050611b7e565b5b61205d84828501611c9b565b91505092915050565b60008060006060848603121561207f5761207e611b79565b5b600084013567ffffffffffffffff81111561209d5761209c611b7e565b5b6120a986828701611c9b565b93505060206120ba86828701611dab565b92505060406120cb86828701611cea565b9150509250925092565b6120de81611eeb565b81146120e957600080fd5b50565b6000813590506120fb816120d5565b92915050565b6000806040838503121561211857612117611b79565b5b600061212685828601611fc0565b9250506020612137858286016120ec565b9150509250929050565b6000806000806080858703121561215b5761215a611b79565b5b600085013567ffffffffffffffff81111561217957612178611b7e565b5b61218587828801611c9b565b945050602061219687828801611cea565b935050604085013567ffffffffffffffff8111156121b7576121b6611b7e565b5b6121c387828801611c9b565b92505060606121d487828801611dab565b91505092959194509250565b60006020820190506121f56000830184611f06565b92915050565b6000806040838503121561221257612211611b79565b5b600083013567ffffffffffffffff8111156122305761222f611b7e565b5b61223c85828601611c9b565b925050602061224d85828601611fc0565b9150509250929050565b600060808201905061226c6000830187611edc565b6122796020830186611e1c565b818103604083015261228b8185611e71565b905061229a6060830184611ef7565b95945050505050565b60006020820190506122b86000830184611edc565b92915050565b600081905092915050565b60006122d482611e2b565b6122de81856122be565b93506122ee818560208601611e47565b80840191505092915050565b600061230682846122c9565b915081905092915050565b7f4f6e6c79206f776e65722063616e20706572666f726d2074686973206163746960008201527f6f6e000000000000000000000000000000000000000000000000000000000000602082015250565b600061236d602283611e36565b915061237882612311565b604082019050919050565b6000602082019050818103600083015261239c81612360565b9050919050565b7f4e487b7100000000000000000000000000000000000000000000000000000000600052602260045260246000fd5b600060028204905060018216806123ea57607f821691505b6020821081036123fd576123fc6123a3565b5b50919050565b60008190508160005260206000209050919050565b60006020601f8301049050919050565b600082821b905092915050565b6000600883026124657fffffffffffffffffffffffffffffffffffffffffffffffffffffffffffffffff82612428565b61246f8683612428565b95508019841693508086168417925050509392505050565b6000819050919050565b60006124ac6124a76124a284611d8a565b612487565b611d8a565b9050919050565b6000819050919050565b6124c683612491565b6124da6124d2826124b3565b848454612435565b825550505050565b600090565b6124ef6124e2565b6124fa8184846124bd565b505050565b5b8181101561251e576125136000826124e7565b600181019050612500565b5050565b601f8211156125635761253481612403565b61253d84612418565b8101602085101561254c578190505b61256061255885612418565b8301826124ff565b50505b505050565b600082821c905092915050565b600061258660001984600802612568565b1980831691505092915050565b600061259f8383612575565b9150826002028217905092915050565b6125b882611e2b565b67ffffffffffffffff8111156125d1576125d0611b9e565b5b6125db82546123d2565b6125e6828285612522565b600060209050601f8311600181146126195760008415612607578287015190505b6126118582612593565b865550612679565b601f19841661262786612403565b60005b8281101561264f5784890151825560018201915060208501945060208101905061262a565b8683101561266c5784890151612668601f891682612575565b8355505b6001600288020188555050505b505050505050565b7f496e76616c696420696e64657800000000000000000000000000000000000000600082015250565b60006126b7600d83611e36565b91506126c282612681565b602082019050919050565b600060208201905081810360008301526126e6816126aa565b9050919050565b7f4e487b7100000000000000000000000000000000000000000000000000000000600052603260045260246000fd5b7f4f6e6c792061646d696e2063616e20706572666f726d2074686973206163746960008201527f6f6e000000000000000000000000000000000000000000000000000000000000602082015250565b6000612778602283611e36565b91506127838261271c565b604082019050919050565b600060208201905081810360008301526127a78161276b565b9050919050565b60006040820190506127c36000830185611edc565b6127d06020830184611ef7565b9392505050565b7f444944206e6f7420616374697665000000000000000000000000000000000000600082015250565b600061280d600e83611e36565b9150612818826127d7565b602082019050919050565b6000602082019050818103600083015261283c81612800565b9050919050565b7f4f6e6c7920617574686f72697a65642069737375657273206f72206f776e657260008201527f2063616e20697373756520564300000000000000000000000000000000000000602082015250565b600061289f602d83611e36565b91506128aa82612843565b604082019050919050565b600060208201905081810360008301526128ce81612892565b9050919050565b600060608201905081810360008301526128ef8186611e71565b90506128fe6020830185611e1c565b61290b6040830184611edc565b949350505050565b7f4f6e6c7920747275737465642076657269666965722063616e20706572666f7260008201527f6d207468697320616374696f6e00000000000000000000000000000000000000602082015250565b600061296f602d83611e36565b915061297a82612913565b604082019050919050565b6000602082019050818103600083015261299e81612962565b9050919050565b7f5643206973206e6f742076616c69640000000000000000000000000000000000600082015250565b60006129db600f83611e36565b91506129e6826129a5565b602082019050919050565b60006020820190508181036000830152612a0a816129ce565b9050919050565b7f564320616c726561647920766572696669656400000000000000000000000000600082015250565b6000612a47601383611e36565b9150612a5282612a11565b602082019050919050565b60006020820190508181036000830152612a7681612a3a565b9050919050565b60006060820190508181036000830152612a978186611e71565b9050612aa66020830185611f06565b612ab36040830184611edc565b949350505050565b60006040820190508181036000830152612ad58185611e71565b9050612ae46020830184611f06565b9392505050565b7f496e76616c69642061646d696e20616464726573730000000000000000000000600082015250565b6000612b21601583611e36565b9150612b2c82612aeb565b602082019050919050565b60006020820190508181036000830152612b5081612b14565b9050919050565b7f44494420616c7265616479206578697374730000000000000000000000000000600082015250565b6000612b8d601283611e36565b9150612b9882612b57565b602082019050919050565b60006020820190508181036000830152612bbc81612b80565b9050919050565b60006040820190508181036000830152612bdd8185611e71565b9050612bec6020830184611edc565b939250505056fea2646970667358221220202d84039f20ce84287bf8e2bb03ab7e74a9d9e90fd9b205ebdec6397d6f35b564736f6c63430008180033",
  "linkReferences": {},
  "deployedLinkReferences": {}
}