{
  "_format": "hh-sol-artifact-1",
  "contractName": "IdentityManager",
  "sourceName": "contracts/IdentityManager.sol",
  "abi": [
    {
      "inputs": [],
      "stateMutability": "nonpayable",
      "type": "constructor"
    },
    {
      "anonymous": false,
      "inputs": [
        {
          "indexed": false,
          "internalType": "string",
          "name": "orgID",
          "type": "string"
        },
        {
          "indexed": false,
          "internalType": "address",
          "name": "owner",
          "type": "address"
        }
      ],
      "name": "DIDRegistered",
      "type": "event"
    },
    {
      "anonymous": false,
      "inputs": [
        {
          "indexed": false,
          "internalType": "string",
          "name": "orgID",
          "type": "string"
        },
        {
          "indexed": false,
          "internalType": "address",
          "name": "issuer",
          "type": "address"
        }
      ],
      "name": "IssuerAuthorized",
      "type": "event"
    },
    {
      "anonymous": false,
      "inputs": [
        {
          "indexed": false,
          "internalType": "address",
          "name": "verifier",
          "type": "address"
        },
        {
          "indexed": false,
          "internalType": "bool",
          "name": "allowed",
          "type": "bool"
        }
      ],
      "name": "TrustedVerifierSet",
      "type": "event"
    },
    {
      "anonymous": false,
      "inputs": [
        {
          "indexed": false,
          "internalType": "string",
          "name": "orgID",
          "type": "string"
        },
        {
          "indexed": false,
          "internalType": "bytes32",
          "name": "hashCredential",
          "type": "bytes32"
        },
        {
          "indexed": false,
          "internalType": "address",
          "name": "issuer",
          "type": "address"
        }
      ],
      "name": "VCCreated",
      "type": "event"
    },
    {
      "anonymous": false,
      "inputs": [
        {
          "indexed": false,
          "internalType": "string",
          "name": "orgID",
          "type": "string"
        },
        {
          "indexed": false,
          "internalType": "uint256",
          "name": "index",
          "type": "uint256"
        }
      ],
      "name": "VCRevoked",
      "type": "event"
    },
    {
      "anonymous": false,
      "inputs": [
        {
          "indexed": false,
          "internalType": "string",
          "name": "orgID",
          "type": "string"
        },
        {
          "indexed": false,
          "internalType": "uint256",
          "name": "index",
          "type": "uint256"
        },
        {
          "indexed": false,
          "internalType": "address",
          "name": "verifier",
          "type": "address"
        }
      ],
      "name": "VCVerified",
      "type": "event"
    },
    {
      "anonymous": false,
      "inputs": [
        {
          "indexed": false,
          "internalType": "uint256",
          "name": "requestId",
          "type": "uint256"
        }
      ],
      "name": "VerificationRequestCancelled",
      "type": "event"
    },
    {
      "anonymous": false,
      "inputs": [
        {
          "indexed": false,
          "internalType": "uint256",
          "name": "requestId",
          "type": "uint256"
        },
        {
          "indexed": false,
          "internalType": "string",
          "name": "orgID",
          "type": "string"
        },
        {
          "indexed": false,
          "internalType": "uint256",
          "name": "vcIndex",
          "type": "uint256"
        },
        {
          "indexed": false,
          "internalType": "address",
          "name": "requester",
          "type": "address"
        },
        {
          "indexed": false,
          "internalType": "address",
          "name": "targetVerifier",
          "type": "address"
        },
        {
          "indexed": false,
          "internalType": "string",
          "name": "metadataUri",
          "type": "string"
        }
      ],
      "name": "VerificationRequested",
      "type": "event"
    },
    {
      "inputs": [],
      "name": "admin",
      "outputs": [
        {
          "internalType": "address",
          "name": "",
          "type": "address"
        }
      ],
      "stateMutability": "view",
      "type": "function"
    },
    {
      "inputs": [
        {
          "internalType": "string",
          "name": "orgID",
          "type": "string"
        },
        {
          "internalType": "address",
          "name": "issuer",
          "type": "address"
        }
      ],
      "name": "authorizeIssuer",
      "outputs": [],
      "stateMutability": "nonpayable",
      "type": "function"
    },
    {
      "inputs": [
        {
          "internalType": "string",
          "name": "",
          "type": "string"
        },
        {
          "internalType": "address",
          "name": "",
          "type": "address"
        }
      ],
      "name": "authorizedIssuers",
      "outputs": [
        {
          "internalType": "bool",
          "name": "",
          "type": "bool"
        }
      ],
      "stateMutability": "view",
      "type": "function"
    },
    {
      "inputs": [
        {
          "internalType": "uint256",
          "name": "requestId",
          "type": "uint256"
        }
      ],
      "name": "cancelVerificationRequest",
      "outputs": [],
      "stateMutability": "nonpayable",
      "type": "function"
    },
    {
      "inputs": [
        {
          "internalType": "string",
          "name": "",
          "type": "string"
        },
        {
          "internalType": "uint256",
          "name": "",
          "type": "uint256"
        }
      ],
      "name": "credentials",
      "outputs": [
        {
          "internalType": "bytes32",
          "name": "hashCredential",
          "type": "bytes32"
        },
        {
          "internalType": "string",
          "name": "uri",
          "type": "string"
        },
        {
          "internalType": "address",
          "name": "issuer",
          "type": "address"
        },
        {
          "internalType": "bool",
          "name": "valid",
          "type": "bool"
        },
        {
          "internalType": "uint256",
          "name": "expirationDate",
          "type": "uint256"
        },
        {
          "internalType": "uint256",
          "name": "issuedAt",
          "type": "uint256"
        },
        {
          "internalType": "bool",
          "name": "verified",
          "type": "bool"
        },
        {
          "internalType": "address",
          "name": "verifier",
          "type": "address"
        },
        {
          "internalType": "uint256",
          "name": "verifiedAt",
          "type": "uint256"
        }
      ],
      "stateMutability": "view",
      "type": "function"
    },
    {
      "inputs": [
        {
          "internalType": "string",
          "name": "orgID",
          "type": "string"
        }
      ],
      "name": "deactivateDID",
      "outputs": [],
      "stateMutability": "nonpayable",
      "type": "function"
    },
    {
      "inputs": [
        {
          "internalType": "string",
          "name": "",
          "type": "string"
        }
      ],
      "name": "dids",
      "outputs": [
        {
          "internalType": "address",
          "name": "owner",
          "type": "address"
        },
        {
          "internalType": "bytes32",
          "name": "hashData",
          "type": "bytes32"
        },
        {
          "internalType": "string",
          "name": "uri",
          "type": "string"
        },
        {
          "internalType": "bool",
          "name": "active",
          "type": "bool"
        }
      ],
      "stateMutability": "view",
      "type": "function"
    },
    {
      "inputs": [
        {
          "internalType": "string",
          "name": "orgID",
          "type": "string"
        },
        {
          "internalType": "uint256",
          "name": "index",
          "type": "uint256"
        }
      ],
      "name": "getVC",
      "outputs": [
        {
          "internalType": "bytes32",
          "name": "hashCredential",
          "type": "bytes32"
        },
        {
          "internalType": "string",
          "name": "uri",
          "type": "string"
        },
        {
          "internalType": "address",
          "name": "issuer",
          "type": "address"
        },
        {
          "internalType": "bool",
          "name": "valid",
          "type": "bool"
        },
        {
          "internalType": "uint256",
          "name": "expirationDate",
          "type": "uint256"
        },
        {
          "internalType": "uint256",
          "name": "issuedAt",
          "type": "uint256"
        },
        {
          "internalType": "bool",
          "name": "verified",
          "type": "bool"
        },
        {
          "internalType": "address",
          "name": "verifier",
          "type": "address"
        },
        {
          "internalType": "uint256",
          "name": "verifiedAt",
          "type": "uint256"
        }
      ],
      "stateMutability": "view",
      "type": "function"
    },
    {
      "inputs": [
        {
          "internalType": "string",
          "name": "orgID",
          "type": "string"
        }
      ],
      "name": "getVCLength",
      "outputs": [
        {
          "internalType": "uint256",
          "name": "",
          "type": "uint256"
        }
      ],
      "stateMutability": "view",
      "type": "function"
    },
    {
      "inputs": [
        {
          "internalType": "string",
          "name": "orgID",
          "type": "string"
        },
        {
          "internalType": "uint256",
          "name": "vcIndex",
          "type": "uint256"
        }
      ],
      "name": "getVCRequestId",
      "outputs": [
        {
          "internalType": "uint256",
          "name": "",
          "type": "uint256"
        }
      ],
      "stateMutability": "view",
      "type": "function"
    },
    {
      "inputs": [
        {
          "internalType": "uint256",
          "name": "requestId",
          "type": "uint256"
        }
      ],
      "name": "getVerificationRequest",
      "outputs": [
        {
          "internalType": "string",
          "name": "orgID",
          "type": "string"
        },
        {
          "internalType": "uint256",
          "name": "vcIndex",
          "type": "uint256"
        },
        {
          "internalType": "address",
          "name": "requester",
          "type": "address"
        },
        {
          "internalType": "address",
          "name": "targetVerifier",
          "type": "address"
        },
        {
          "internalType": "string",
          "name": "metadataUri",
          "type": "string"
        },
        {
          "internalType": "uint256",
          "name": "requestedAt",
          "type": "uint256"
        },
        {
          "internalType": "bool",
          "name": "processed",
          "type": "bool"
        }
      ],
      "stateMutability": "view",
      "type": "function"
    },
    {
      "inputs": [
        {
          "internalType": "string",
          "name": "orgID",
          "type": "string"
        },
        {
          "internalType": "uint256",
          "name": "vcIndex",
          "type": "uint256"
        }
      ],
      "name": "hasPendingVerificationRequest",
      "outputs": [
        {
          "internalType": "bool",
          "name": "",
          "type": "bool"
        }
      ],
      "stateMutability": "view",
      "type": "function"
    },
    {
      "inputs": [
        {
          "internalType": "string",
          "name": "orgID",
          "type": "string"
        },
        {
          "internalType": "bytes32",
          "name": "hashCredential",
          "type": "bytes32"
        },
        {
          "internalType": "string",
          "name": "uri",
          "type": "string"
        }
      ],
      "name": "issueVC",
      "outputs": [],
      "stateMutability": "nonpayable",
      "type": "function"
    },
    {
      "inputs": [
        {
          "internalType": "string",
          "name": "orgID",
          "type": "string"
        },
        {
          "internalType": "bytes32",
          "name": "hashCredential",
          "type": "bytes32"
        },
        {
          "internalType": "string",
          "name": "uri",
          "type": "string"
        },
        {
          "internalType": "uint256",
          "name": "expirationDate",
          "type": "uint256"
        }
      ],
      "name": "issueVCWithExpiration",
      "outputs": [],
      "stateMutability": "nonpayable",
      "type": "function"
    },
    {
      "inputs": [],
      "name": "nextRequestId",
      "outputs": [
        {
          "internalType": "uint256",
          "name": "",
          "type": "uint256"
        }
      ],
      "stateMutability": "view",
      "type": "function"
    },
    {
      "inputs": [
        {
          "internalType": "string",
          "name": "orgID",
          "type": "string"
        },
        {
          "internalType": "bytes32",
          "name": "hashData",
          "type": "bytes32"
        },
        {
          "internalType": "string",
          "name": "uri",
          "type": "string"
        }
      ],
      "name": "registerDID",
      "outputs": [],
      "stateMutability": "nonpayable",
      "type": "function"
    },
    {
      "inputs": [
        {
          "internalType": "string",
          "name": "orgID",
          "type": "string"
        },
        {
          "internalType": "uint256",
          "name": "vcIndex",
          "type": "uint256"
        },
        {
          "internalType": "address",
          "name": "targetVerifier",
          "type": "address"
        },
        {
          "internalType": "string",
          "name": "metadataUri",
          "type": "string"
        }
      ],
      "name": "requestVerification",
      "outputs": [],
      "stateMutability": "nonpayable",
      "type": "function"
    },
    {
      "inputs": [
        {
          "internalType": "string",
          "name": "orgID",
          "type": "string"
        },
        {
          "internalType": "uint256",
          "name": "index",
          "type": "uint256"
        }
      ],
      "name": "revokeVC",
      "outputs": [],
      "stateMutability": "nonpayable",
      "type": "function"
    },
    {
      "inputs": [
        {
          "internalType": "address",
          "name": "newAdmin",
          "type": "address"
        }
      ],
      "name": "setAdmin",
      "outputs": [],
      "stateMutability": "nonpayable",
      "type": "function"
    },
    {
      "inputs": [
        {
          "internalType": "address",
          "name": "verifier",
          "type": "address"
        },
        {
          "internalType": "bool",
          "name": "allowed",
          "type": "bool"
        }
      ],
      "name": "setTrustedVerifier",
      "outputs": [],
      "stateMutability": "nonpayable",
      "type": "function"
    },
    {
      "inputs": [
        {
          "internalType": "address",
          "name": "",
          "type": "address"
        }
      ],
      "name": "trustedVerifiers",
      "outputs": [
        {
          "internalType": "bool",
          "name": "",
          "type": "bool"
        }
      ],
      "stateMutability": "view",
      "type": "function"
    },
    {
      "inputs": [
        {
          "internalType": "string",
          "name": "orgID",
          "type": "string"
        },
        {
          "internalType": "bytes32",
          "name": "newHash",
          "type": "bytes32"
        },
        {
          "internalType": "string",
          "name": "newUri",
          "type": "string"
        }
      ],
      "name": "updateDID",
      "outputs": [],
      "stateMutability": "nonpayable",
      "type": "function"
    },
    {
      "inputs": [
        {
          "internalType": "string",
          "name": "",
          "type": "string"
        },
        {
          "internalType": "uint256",
          "name": "",
          "type": "uint256"
        }
      ],
      "name": "vcRequestId",
      "outputs": [
        {
          "internalType": "uint256",
          "name": "",
          "type": "uint256"
        }
      ],
      "stateMutability": "view",
      "type": "function"
    },
    {
      "inputs": [
        {
          "internalType": "uint256",
          "name": "",
          "type": "uint256"
        }
      ],
      "name": "verificationRequests",
      "outputs": [
        {
          "internalType": "string",
          "name": "orgID",
          "type": "string"
        },
        {
          "internalType": "uint256",
          "name": "vcIndex",
          "type": "uint256"
        },
        {
          "internalType": "address",
          "name": "requester",
          "type": "address"
        },
        {
          "internalType": "address",
          "name": "targetVerifier",
          "type": "address"
        },
        {
          "internalType": "string",
          "name": "metadataUri",
          "type": "string"
        },
        {
          "internalType": "uint256",
          "name": "requestedAt",
          "type": "uint256"
        },
        {
          "internalType": "bool",
          "name": "processed",
          "type": "bool"
        }
      ],
      "stateMutability": "view",
      "type": "function"
    },
    {
      "inputs": [
        {
          "internalType": "string",
          "name": "orgID",
          "type": "string"
        },
        {
          "internalType": "uint256",
          "name": "index",
          "type": "uint256"
        }
      ],
      "name": "verifyCredential",
      "outputs": [],
      "stateMutability": "nonpayable",
      "type": "function"
    },
    {
      "inputs": [
        {
          "internalType": "string",
          "name": "orgID",
          "type": "string"
        },
        {
          "internalType": "uint256",
          "name": "index",
          "type": "uint256"
        },
        {
          "internalType": "bytes32",
          "name": "providedHash",
          "type": "bytes32"
        }
      ],
      "name": "verifyVC",
      "outputs": [
        {
          "internalType": "bool",
          "name": "",
          "type": "bool"
        }
      ],
      "stateMutability": "view",
      "type": "function"
    }
  ],
  "bytecode": "0x608060405234801561001057600080fd5b5033600760006101000a81548173ffffffffffffffffffffffffffffffffffffffff021916908373ffffffffffffffffffffffffffffffffffffffff160217905550614ac0806100616000396000f3fe608060405234801561001057600080fd5b506004361061018e5760003560e01c80636db45c61116100de5780639ae931a211610097578063bf4ce54e11610071578063bf4ce54e146104e1578063e3b59a44146104fd578063f44ab5161461052d578063f851a440146105605761018e565b80639ae931a2146104655780639d7b51cd146104955780639eb32e0e146104c55761018e565b80636db45c611461038d578063700a6702146103a9578063704b6c02146103c55780637586f965146103e157806376c3bbc3146103fd5780638d12adb1146104355761018e565b80633b253b231161014b57806354f93e2e1161012557806354f93e2e1461031b578063562de728146103375780635cdc40a2146103535780636a84a9851461036f5761018e565b80633b253b23146102995780634089d49f146102b55780634cfc90f8146102eb5761018e565b80630d963ae1146101935780630fdb1606146101af5780631979799e146101e757806322ccb47414610217578063263198331461024d5780632e1fe63d1461027d575b600080fd5b6101ad60048036038101906101a89190613469565b61057e565b005b6101c960048036038101906101c4919061352a565b610689565b6040516101de9998979695949392919061367f565b60405180910390f35b61020160048036038101906101fc919061352a565b6107ec565b60405161020e9190613713565b60405180910390f35b610231600480360381019061022c919061372e565b610826565b604051610244979695949392919061375b565b60405180910390f35b61026760048036038101906102629190613804565b610b03565b6040516102749190613831565b60405180910390f35b61029760048036038101906102929190613469565b610b23565b005b6102b360048036038101906102ae919061384c565b610b35565b005b6102cf60048036038101906102ca919061372e565b610c22565b6040516102e2979695949392919061375b565b60405180910390f35b61030560048036038101906103009190613895565b610dc1565b6040516103129190613831565b60405180910390f35b61033560048036038101906103309190613930565b61105b565b005b610351600480360381019061034c9190613970565b61117f565b005b61036d60048036038101906103689190613a0f565b611aa0565b005b610377611e38565b6040516103849190613713565b60405180910390f35b6103a760048036038101906103a2919061352a565b611e3e565b005b6103c360048036038101906103be919061352a565b61243b565b005b6103df60048036038101906103da9190613804565b6125e6565b005b6103fb60048036038101906103f69190613469565b612729565b005b6104176004803603810190610412919061352a565b6128f9565b60405161042c9998979695949392919061367f565b60405180910390f35b61044f600480360381019061044a919061352a565b612ba3565b60405161045c9190613831565b60405180910390f35b61047f600480360381019061047a919061384c565b612e1c565b60405161048c9190613713565b60405180910390f35b6104af60048036038101906104aa919061352a565b612e47565b6040516104bc9190613713565b60405180910390f35b6104df60048036038101906104da919061372e565b612e82565b005b6104fb60048036038101906104f69190613aae565b613011565b005b61051760048036038101906105129190613aae565b613173565b6040516105249190613831565b60405180910390f35b6105476004803603810190610542919061384c565b6131b8565b6040516105579493929190613b0a565b60405180910390f35b6105686132b3565b6040516105759190613b56565b60405180910390f35b823373ffffffffffffffffffffffffffffffffffffffff166000826040516105a69190613bad565b908152602001604051809103902060000160009054906101000a900473ffffffffffffffffffffffffffffffffffffffff1673ffffffffffffffffffffffffffffffffffffffff161461062e576040517f08c379a000000000000000000000000000000000000000000000000000000000815260040161062590613c36565b60405180910390fd5b8260008560405161063f9190613bad565b908152602001604051809103902060010181905550816000856040516106659190613bad565b908152602001604051809103902060020190816106829190613e62565b5050505050565b60018280516020810182018051848252602083016020850120818352809550505050505081815481106106bb57600080fd5b9060005260206000209060070201600091509150508060000154908060010180546106e590613c85565b80601f016020809104026020016040519081016040528092919081815260200182805461071190613c85565b801561075e5780601f106107335761010080835404028352916020019161075e565b820191906000526020600020905b81548152906001019060200180831161074157829003601f168201915b5050505050908060020160009054906101000a900473ffffffffffffffffffffffffffffffffffffffff16908060020160149054906101000a900460ff16908060030154908060040154908060050160009054906101000a900460ff16908060050160019054906101000a900473ffffffffffffffffffffffffffffffffffffffff16908060060154905089565b60006005836040516107fe9190613bad565b9081526020016040518091039020600083815260200190815260200160002054905092915050565b6060600080600060606000806000600460008a81526020019081526020016000206040518060e001604052908160008201805461086290613c85565b80601f016020809104026020016040519081016040528092919081815260200182805461088e90613c85565b80156108db5780601f106108b0576101008083540402835291602001916108db565b820191906000526020600020905b8154815290600101906020018083116108be57829003601f168201915b50505050508152602001600182015481526020016002820160009054906101000a900473ffffffffffffffffffffffffffffffffffffffff1673ffffffffffffffffffffffffffffffffffffffff1673ffffffffffffffffffffffffffffffffffffffff1681526020016003820160009054906101000a900473ffffffffffffffffffffffffffffffffffffffff1673ffffffffffffffffffffffffffffffffffffffff1673ffffffffffffffffffffffffffffffffffffffff1681526020016004820180546109aa90613c85565b80601f01602080910402602001604051908101604052809291908181526020018280546109d690613c85565b8015610a235780601f106109f857610100808354040283529160200191610a23565b820191906000526020600020905b815481529060010190602001808311610a0657829003601f168201915b50505050508152602001600582015481526020016006820160009054906101000a900460ff1615151515815250509050600073ffffffffffffffffffffffffffffffffffffffff16816040015173ffffffffffffffffffffffffffffffffffffffff1603610ac6576040517f08c379a0000000000000000000000000000000000000000000000000000000008152600401610abd90613f80565b60405180910390fd5b806000015181602001518260400151836060015184608001518560a001518660c00151975097509750975097509750975050919395979092949650565b60036020528060005260406000206000915054906101000a900460ff1681565b610b308383836000611aa0565b505050565b803373ffffffffffffffffffffffffffffffffffffffff16600082604051610b5d9190613bad565b908152602001604051809103902060000160009054906101000a900473ffffffffffffffffffffffffffffffffffffffff1673ffffffffffffffffffffffffffffffffffffffff1614610be5576040517f08c379a0000000000000000000000000000000000000000000000000000000008152600401610bdc90613c36565b60405180910390fd5b60008083604051610bf69190613bad565b908152602001604051809103902060030160006101000a81548160ff0219169083151502179055505050565b6004602052806000526040600020600091509050806000018054610c4590613c85565b80601f0160208091040260200160405190810160405280929190818152602001828054610c7190613c85565b8015610cbe5780601f10610c9357610100808354040283529160200191610cbe565b820191906000526020600020905b815481529060010190602001808311610ca157829003601f168201915b5050505050908060010154908060020160009054906101000a900473ffffffffffffffffffffffffffffffffffffffff16908060030160009054906101000a900473ffffffffffffffffffffffffffffffffffffffff1690806004018054610d2590613c85565b80601f0160208091040260200160405190810160405280929190818152602001828054610d5190613c85565b8015610d9e5780601f10610d7357610100808354040283529160200191610d9e565b820191906000526020600020905b815481529060010190602001808311610d8157829003601f168201915b5050505050908060050154908060060160009054906101000a900460ff16905087565b6000600184604051610dd39190613bad565b9081526020016040518091039020805490508310610e26576040517f08c379a0000000000000000000000000000000000000000000000000000000008152600401610e1d90613fec565b60405180910390fd5b6000600185604051610e389190613bad565b90815260200160405180910390208481548110610e5857610e5761400c565b5b90600052602060002090600702016040518061012001604052908160008201548152602001600182018054610e8c90613c85565b80601f0160208091040260200160405190810160405280929190818152602001828054610eb890613c85565b8015610f055780601f10610eda57610100808354040283529160200191610f05565b820191906000526020600020905b815481529060010190602001808311610ee857829003601f168201915b505050505081526020016002820160009054906101000a900473ffffffffffffffffffffffffffffffffffffffff1673ffffffffffffffffffffffffffffffffffffffff1673ffffffffffffffffffffffffffffffffffffffff1681526020016002820160149054906101000a900460ff1615151515815260200160038201548152602001600482015481526020016005820160009054906101000a900460ff161515151581526020016005820160019054906101000a900473ffffffffffffffffffffffffffffffffffffffff1673ffffffffffffffffffffffffffffffffffffffff1673ffffffffffffffffffffffffffffffffffffffff16815260200160068201548152505090508060600151611023576000915050611054565b6000816080015111801561103a5750806080015142115b15611049576000915050611054565b828160000151149150505b9392505050565b600760009054906101000a900473ffffffffffffffffffffffffffffffffffffffff1673ffffffffffffffffffffffffffffffffffffffff163373ffffffffffffffffffffffffffffffffffffffff16146110eb576040517f08c379a00000000000000000000000000000000000000000000000000000000081526004016110e2906140ad565b60405180910390fd5b80600360008473ffffffffffffffffffffffffffffffffffffffff1673ffffffffffffffffffffffffffffffffffffffff16815260200190815260200160002060006101000a81548160ff0219169083151502179055507f703759ee9e6445e9bc12af04229976bd04f5ea56ad56bddc62950786fc6ec9c782826040516111739291906140cd565b60405180910390a15050565b60018460405161118f9190613bad565b90815260200160405180910390208054905083106111e2576040517f08c379a00000000000000000000000000000000000000000000000000000000081526004016111d990614142565b60405180910390fd5b60006001856040516111f49190613bad565b908152602001604051809103902084815481106112145761121361400c565b5b9060005260206000209060070201604051806101200160405290816000820154815260200160018201805461124890613c85565b80601f016020809104026020016040519081016040528092919081815260200182805461127490613c85565b80156112c15780601f10611296576101008083540402835291602001916112c1565b820191906000526020600020905b8154815290600101906020018083116112a457829003601f168201915b505050505081526020016002820160009054906101000a900473ffffffffffffffffffffffffffffffffffffffff1673ffffffffffffffffffffffffffffffffffffffff1673ffffffffffffffffffffffffffffffffffffffff1681526020016002820160149054906101000a900460ff1615151515815260200160038201548152602001600482015481526020016005820160009054906101000a900460ff161515151581526020016005820160019054906101000a900473ffffffffffffffffffffffffffffffffffffffff1673ffffffffffffffffffffffffffffffffffffffff1673ffffffffffffffffffffffffffffffffffffffff16815260200160068201548152505090508060600151611410576040517f08c379a0000000000000000000000000000000000000000000000000000000008152600401611407906141ae565b60405180910390fd5b8060c0015115611455576040517f08c379a000000000000000000000000000000000000000000000000000000000815260040161144c9061421a565b60405180910390fd5b6000856040516114659190613bad565b908152602001604051809103902060000160009054906101000a900473ffffffffffffffffffffffffffffffffffffffff1673ffffffffffffffffffffffffffffffffffffffff163373ffffffffffffffffffffffffffffffffffffffff1614806114ff5750806040015173ffffffffffffffffffffffffffffffffffffffff163373ffffffffffffffffffffffffffffffffffffffff16145b61153e576040517f08c379a0000000000000000000000000000000000000000000000000000000008152600401611535906142ac565b60405180910390fd5b60006005866040516115509190613bad565b9081526020016040518091039020600086815260200190815260200160002054905060008111156117e2576000600460008381526020019081526020016000206040518060e00160405290816000820180546115ab90613c85565b80601f01602080910402602001604051908101604052809291908181526020018280546115d790613c85565b80156116245780601f106115f957610100808354040283529160200191611624565b820191906000526020600020905b81548152906001019060200180831161160757829003601f168201915b50505050508152602001600182015481526020016002820160009054906101000a900473ffffffffffffffffffffffffffffffffffffffff1673ffffffffffffffffffffffffffffffffffffffff1673ffffffffffffffffffffffffffffffffffffffff1681526020016003820160009054906101000a900473ffffffffffffffffffffffffffffffffffffffff1673ffffffffffffffffffffffffffffffffffffffff1673ffffffffffffffffffffffffffffffffffffffff1681526020016004820180546116f390613c85565b80601f016020809104026020016040519081016040528092919081815260200182805461171f90613c85565b801561176c5780601f106117415761010080835404028352916020019161176c565b820191906000526020600020905b81548152906001019060200180831161174f57829003601f168201915b50505050508152602001600582015481526020016006820160009054906101000a900460ff16151515158152505090508060c001516117e0576040517f08c379a00000000000000000000000000000000000000000000000000000000081526004016117d79061433e565b60405180910390fd5b505b600073ffffffffffffffffffffffffffffffffffffffff168473ffffffffffffffffffffffffffffffffffffffff16146118a357600360008573ffffffffffffffffffffffffffffffffffffffff1673ffffffffffffffffffffffffffffffffffffffff16815260200190815260200160002060009054906101000a900460ff166118a2576040517f08c379a0000000000000000000000000000000000000000000000000000000008152600401611899906143aa565b60405180910390fd5b5b60006006600081546118b4906143f9565b91905081905590506040518060e001604052808881526020018781526020013373ffffffffffffffffffffffffffffffffffffffff1681526020018673ffffffffffffffffffffffffffffffffffffffff168152602001858152602001428152602001600015158152506004600083815260200190815260200160002060008201518160000190816119469190613e62565b506020820151816001015560408201518160020160006101000a81548173ffffffffffffffffffffffffffffffffffffffff021916908373ffffffffffffffffffffffffffffffffffffffff16021790555060608201518160030160006101000a81548173ffffffffffffffffffffffffffffffffffffffff021916908373ffffffffffffffffffffffffffffffffffffffff16021790555060808201518160040190816119f49190613e62565b5060a0820151816005015560c08201518160060160006101000a81548160ff02191690831515021790555090505080600588604051611a339190613bad565b90815260200160405180910390206000888152602001908152602001600020819055507ff63cfc4a56e9c581ea2affa45368294a51c3ebfd6533f2e2fa09034210799aa5818888338989604051611a8f96959493929190614441565b60405180910390a150505050505050565b600084604051611ab09190613bad565b908152602001604051809103902060030160009054906101000a900460ff16611b0e576040517f08c379a0000000000000000000000000000000000000000000000000000000008152600401611b05906144fc565b60405180910390fd5b600284604051611b1e9190613bad565b908152602001604051809103902060003373ffffffffffffffffffffffffffffffffffffffff1673ffffffffffffffffffffffffffffffffffffffff16815260200190815260200160002060009054906101000a900460ff1680611bee5750600084604051611b8d9190613bad565b908152602001604051809103902060000160009054906101000a900473ffffffffffffffffffffffffffffffffffffffff1673ffffffffffffffffffffffffffffffffffffffff163373ffffffffffffffffffffffffffffffffffffffff16145b611c2d576040517f08c379a0000000000000000000000000000000000000000000000000000000008152600401611c249061458e565b60405180910390fd5b600184604051611c3d9190613bad565b90815260200160405180910390206040518061012001604052808581526020018481526020013373ffffffffffffffffffffffffffffffffffffffff168152602001600115158152602001838152602001428152602001600015158152602001600073ffffffffffffffffffffffffffffffffffffffff16815260200160008152509080600181540180825580915050600190039060005260206000209060070201600090919091909150600082015181600001556020820151816001019081611d079190613e62565b5060408201518160020160006101000a81548173ffffffffffffffffffffffffffffffffffffffff021916908373ffffffffffffffffffffffffffffffffffffffff16021790555060608201518160020160146101000a81548160ff0219169083151502179055506080820151816003015560a0820151816004015560c08201518160050160006101000a81548160ff02191690831515021790555060e08201518160050160016101000a81548173ffffffffffffffffffffffffffffffffffffffff021916908373ffffffffffffffffffffffffffffffffffffffff160217905550610100820151816006015550507f61d8024384cc7a0975067e55e89fbd854cfc28478f9ee9be8feb1c92009dde7b848433604051611e2a939291906145ae565b60405180910390a150505050565b60065481565b600360003373ffffffffffffffffffffffffffffffffffffffff1673ffffffffffffffffffffffffffffffffffffffff16815260200190815260200160002060009054906101000a900460ff16611eca576040517f08c379a0000000000000000000000000000000000000000000000000000000008152600401611ec19061465e565b60405180910390fd5b600182604051611eda9190613bad565b9081526020016040518091039020805490508110611f2d576040517f08c379a0000000000000000000000000000000000000000000000000000000008152600401611f2490613fec565b60405180910390fd5b6000600183604051611f3f9190613bad565b90815260200160405180910390208281548110611f5f57611f5e61400c565b5b906000526020600020906007020190508060020160149054906101000a900460ff16611fc0576040517f08c379a0000000000000000000000000000000000000000000000000000000008152600401611fb7906141ae565b60405180910390fd5b8060050160009054906101000a900460ff1615612012576040517f08c379a00000000000000000000000000000000000000000000000000000000081526004016120099061421a565b60405180910390fd5b60006005846040516120249190613bad565b908152602001604051809103902060008481526020019081526020016000205490506000811115612391576000600460008381526020019081526020016000206040518060e001604052908160008201805461207f90613c85565b80601f01602080910402602001604051908101604052809291908181526020018280546120ab90613c85565b80156120f85780601f106120cd576101008083540402835291602001916120f8565b820191906000526020600020905b8154815290600101906020018083116120db57829003601f168201915b50505050508152602001600182015481526020016002820160009054906101000a900473ffffffffffffffffffffffffffffffffffffffff1673ffffffffffffffffffffffffffffffffffffffff1673ffffffffffffffffffffffffffffffffffffffff1681526020016003820160009054906101000a900473ffffffffffffffffffffffffffffffffffffffff1673ffffffffffffffffffffffffffffffffffffffff1673ffffffffffffffffffffffffffffffffffffffff1681526020016004820180546121c790613c85565b80601f01602080910402602001604051908101604052809291908181526020018280546121f390613c85565b80156122405780601f1061221557610100808354040283529160200191612240565b820191906000526020600020905b81548152906001019060200180831161222357829003601f168201915b50505050508152602001600582015481526020016006820160009054906101000a900460ff16151515158152505090508060c00151156122b5576040517f08c379a00000000000000000000000000000000000000000000000000000000081526004016122ac906146f0565b60405180910390fd5b600073ffffffffffffffffffffffffffffffffffffffff16816060015173ffffffffffffffffffffffffffffffffffffffff161461236057806060015173ffffffffffffffffffffffffffffffffffffffff163373ffffffffffffffffffffffffffffffffffffffff161461235f576040517f08c379a000000000000000000000000000000000000000000000000000000000815260040161235690614782565b60405180910390fd5b5b60016004600084815260200190815260200160002060060160006101000a81548160ff021916908315150217905550505b60018260050160006101000a81548160ff021916908315150217905550338260050160016101000a81548173ffffffffffffffffffffffffffffffffffffffff021916908373ffffffffffffffffffffffffffffffffffffffff1602179055504282600601819055507f2e65ebc3f4797e3f3fab76219c8b8949c6b67513964509f8cc282c50bc3ddc2584843360405161242d939291906147a2565b60405180910390a150505050565b813373ffffffffffffffffffffffffffffffffffffffff166000826040516124639190613bad565b908152602001604051809103902060000160009054906101000a900473ffffffffffffffffffffffffffffffffffffffff1673ffffffffffffffffffffffffffffffffffffffff16146124eb576040517f08c379a00000000000000000000000000000000000000000000000000000000081526004016124e290613c36565b60405180910390fd5b6001836040516124fb9190613bad565b908152602001604051809103902080549050821061254e576040517f08c379a000000000000000000000000000000000000000000000000000000000815260040161254590613fec565b60405180910390fd5b60006001846040516125609190613bad565b908152602001604051809103902083815481106125805761257f61400c565b5b906000526020600020906007020160020160146101000a81548160ff0219169083151502179055507f487aeade94d29c4cb9f41ec752a329b67cd5d3c1a5628e8064b48042d0a33c8e83836040516125d99291906147e0565b60405180910390a1505050565b600760009054906101000a900473ffffffffffffffffffffffffffffffffffffffff1673ffffffffffffffffffffffffffffffffffffffff163373ffffffffffffffffffffffffffffffffffffffff1614612676576040517f08c379a000000000000000000000000000000000000000000000000000000000815260040161266d906140ad565b60405180910390fd5b600073ffffffffffffffffffffffffffffffffffffffff168173ffffffffffffffffffffffffffffffffffffffff16036126e5576040517f08c379a00000000000000000000000000000000000000000000000000000000081526004016126dc9061485c565b60405180910390fd5b80600760006101000a81548173ffffffffffffffffffffffffffffffffffffffff021916908373ffffffffffffffffffffffffffffffffffffffff16021790555050565b600073ffffffffffffffffffffffffffffffffffffffff166000846040516127519190613bad565b908152602001604051809103902060000160009054906101000a900473ffffffffffffffffffffffffffffffffffffffff1673ffffffffffffffffffffffffffffffffffffffff16146127d9576040517f08c379a00000000000000000000000000000000000000000000000000000000081526004016127d0906148c8565b60405180910390fd5b60405180608001604052803373ffffffffffffffffffffffffffffffffffffffff168152602001838152602001828152602001600115158152506000846040516128239190613bad565b908152602001604051809103902060008201518160000160006101000a81548173ffffffffffffffffffffffffffffffffffffffff021916908373ffffffffffffffffffffffffffffffffffffffff1602179055506020820151816001015560408201518160020190816128979190613e62565b5060608201518160030160006101000a81548160ff0219169083151502179055509050507fd59e4d670f6e249831d6f8ce560f47ced54b3f4203e2d0050dc495fd6b919dd283336040516128ec9291906148e8565b60405180910390a1505050565b60006060600080600080600080600060018b6040516129189190613bad565b9081526020016040518091039020805490508a1061296b576040517f08c379a000000000000000000000000000000000000000000000000000000000815260040161296290613fec565b60405180910390fd5b600060018c60405161297d9190613bad565b90815260200160405180910390208b8154811061299d5761299c61400c565b5b906000526020600020906007020160405180610120016040529081600082015481526020016001820180546129d190613c85565b80601f01602080910402602001604051908101604052809291908181526020018280546129fd90613c85565b8015612a4a5780601f10612a1f57610100808354040283529160200191612a4a565b820191906000526020600020905b815481529060010190602001808311612a2d57829003601f168201915b505050505081526020016002820160009054906101000a900473ffffffffffffffffffffffffffffffffffffffff1673ffffffffffffffffffffffffffffffffffffffff1673ffffffffffffffffffffffffffffffffffffffff1681526020016002820160149054906101000a900460ff1615151515815260200160038201548152602001600482015481526020016005820160009054906101000a900460ff161515151581526020016005820160019054906101000a900473ffffffffffffffffffffffffffffffffffffffff1673ffffffffffffffffffffffffffffffffffffffff1673ffffffffffffffffffffffffffffffffffffffff1681526020016006820154815250509050806000015181602001518260400151836060015184608001518560a001518660c001518760e00151886101000151995099509950995099509950995099509950509295985092959850929598565b600080600584604051612bb69190613bad565b9081526020016040518091039020600084815260200190815260200160002054905060008103612bea576000915050612e16565b6000600460008381526020019081526020016000206040518060e0016040529081600082018054612c1a90613c85565b80601f0160208091040260200160405190810160405280929190818152602001828054612c4690613c85565b8015612c935780601f10612c6857610100808354040283529160200191612c93565b820191906000526020600020905b815481529060010190602001808311612c7657829003601f168201915b50505050508152602001600182015481526020016002820160009054906101000a900473ffffffffffffffffffffffffffffffffffffffff1673ffffffffffffffffffffffffffffffffffffffff1673ffffffffffffffffffffffffffffffffffffffff1681526020016003820160009054906101000a900473ffffffffffffffffffffffffffffffffffffffff1673ffffffffffffffffffffffffffffffffffffffff1673ffffffffffffffffffffffffffffffffffffffff168152602001600482018054612d6290613c85565b80601f0160208091040260200160405190810160405280929190818152602001828054612d8e90613c85565b8015612ddb5780601f10612db057610100808354040283529160200191612ddb565b820191906000526020600020905b815481529060010190602001808311612dbe57829003601f168201915b50505050508152602001600582015481526020016006820160009054906101000a900460ff16151515158152505090508060c0015115925050505b92915050565b6000600182604051612e2e9190613bad565b9081526020016040518091039020805490509050919050565b600582805160208101820180518482526020830160208501208183528095505050505050602052806000526040600020600091509150505481565b60006004600083815260200190815260200160002090503373ffffffffffffffffffffffffffffffffffffffff168160020160009054906101000a900473ffffffffffffffffffffffffffffffffffffffff1673ffffffffffffffffffffffffffffffffffffffff1614612f2b576040517f08c379a0000000000000000000000000000000000000000000000000000000008152600401612f2290614964565b60405180910390fd5b8060060160009054906101000a900460ff1615612f7d576040517f08c379a0000000000000000000000000000000000000000000000000000000008152600401612f74906149d0565b60405180910390fd5b60018160060160006101000a81548160ff0219169083151502179055506000600582600001604051612faf9190614a73565b9081526020016040518091039020600083600101548152602001908152602001600020819055507fb47537e27d2fa96252914b3f0f88389a4fb9316accfbbc8103aabc9431ce5198826040516130059190613713565b60405180910390a15050565b813373ffffffffffffffffffffffffffffffffffffffff166000826040516130399190613bad565b908152602001604051809103902060000160009054906101000a900473ffffffffffffffffffffffffffffffffffffffff1673ffffffffffffffffffffffffffffffffffffffff16146130c1576040517f08c379a00000000000000000000000000000000000000000000000000000000081526004016130b890613c36565b60405180910390fd5b60016002846040516130d39190613bad565b908152602001604051809103902060008473ffffffffffffffffffffffffffffffffffffffff1673ffffffffffffffffffffffffffffffffffffffff16815260200190815260200160002060006101000a81548160ff0219169083151502179055507f856abbe6e67b944503a2c4eb69aab351e076728737a07476cea9b4e86ee9ad4a83836040516131669291906148e8565b60405180910390a1505050565b6002828051602081018201805184825260208301602085012081835280955050505050506020528060005260406000206000915091509054906101000a900460ff1681565b6000818051602081018201805184825260208301602085012081835280955050505050506000915090508060000160009054906101000a900473ffffffffffffffffffffffffffffffffffffffff169080600101549080600201805461321d90613c85565b80601f016020809104026020016040519081016040528092919081815260200182805461324990613c85565b80156132965780601f1061326b57610100808354040283529160200191613296565b820191906000526020600020905b81548152906001019060200180831161327957829003601f168201915b5050505050908060030160009054906101000a900460ff16905084565b600760009054906101000a900473ffffffffffffffffffffffffffffffffffffffff1681565b6000604051905090565b600080fd5b600080fd5b600080fd5b600080fd5b6000601f19601f8301169050919050565b7f4e487b7100000000000000000000000000000000000000000000000000000000600052604160045260246000fd5b613340826132f7565b810181811067ffffffffffffffff8211171561335f5761335e613308565b5b80604052505050565b60006133726132d9565b905061337e8282613337565b919050565b600067ffffffffffffffff82111561339e5761339d613308565b5b6133a7826132f7565b9050602081019050919050565b82818337600083830152505050565b60006133d66133d184613383565b613368565b9050828152602081018484840111156133f2576133f16132f2565b5b6133fd8482856133b4565b509392505050565b600082601f83011261341a576134196132ed565b5b813561342a8482602086016133c3565b91505092915050565b6000819050919050565b61344681613433565b811461345157600080fd5b50565b6000813590506134638161343d565b92915050565b600080600060608486031215613482576134816132e3565b5b600084013567ffffffffffffffff8111156134a05761349f6132e8565b5b6134ac86828701613405565b93505060206134bd86828701613454565b925050604084013567ffffffffffffffff8111156134de576134dd6132e8565b5b6134ea86828701613405565b9150509250925092565b6000819050919050565b613507816134f4565b811461351257600080fd5b50565b600081359050613524816134fe565b92915050565b60008060408385031215613541576135406132e3565b5b600083013567ffffffffffffffff81111561355f5761355e6132e8565b5b61356b85828601613405565b925050602061357c85828601613515565b9150509250929050565b61358f81613433565b82525050565b600081519050919050565b600082825260208201905092915050565b60005b838110156135cf5780820151818401526020810190506135b4565b60008484015250505050565b60006135e682613595565b6135f081856135a0565b93506136008185602086016135b1565b613609816132f7565b840191505092915050565b600073ffffffffffffffffffffffffffffffffffffffff82169050919050565b600061363f82613614565b9050919050565b61364f81613634565b82525050565b60008115159050919050565b61366a81613655565b82525050565b613679816134f4565b82525050565b600061012082019050613695600083018c613586565b81810360208301526136a7818b6135db565b90506136b6604083018a613646565b6136c36060830189613661565b6136d06080830188613670565b6136dd60a0830187613670565b6136ea60c0830186613661565b6136f760e0830185613646565b613705610100830184613670565b9a9950505050505050505050565b60006020820190506137286000830184613670565b92915050565b600060208284031215613744576137436132e3565b5b600061375284828501613515565b91505092915050565b600060e0820190508181036000830152613775818a6135db565b90506137846020830189613670565b6137916040830188613646565b61379e6060830187613646565b81810360808301526137b081866135db565b90506137bf60a0830185613670565b6137cc60c0830184613661565b98975050505050505050565b6137e181613634565b81146137ec57600080fd5b50565b6000813590506137fe816137d8565b92915050565b60006020828403121561381a576138196132e3565b5b6000613828848285016137ef565b91505092915050565b60006020820190506138466000830184613661565b92915050565b600060208284031215613862576138616132e3565b5b600082013567ffffffffffffffff8111156138805761387f6132e8565b5b61388c84828501613405565b91505092915050565b6000806000606084860312156138ae576138ad6132e3565b5b600084013567ffffffffffffffff8111156138cc576138cb6132e8565b5b6138d886828701613405565b93505060206138e986828701613515565b92505060406138fa86828701613454565b9150509250925092565b61390d81613655565b811461391857600080fd5b50565b60008135905061392a81613904565b92915050565b60008060408385031215613947576139466132e3565b5b6000613955858286016137ef565b92505060206139668582860161391b565b9150509250929050565b6000806000806080858703121561398a576139896132e3565b5b600085013567ffffffffffffffff8111156139a8576139a76132e8565b5b6139b487828801613405565b94505060206139c587828801613515565b93505060406139d6878288016137ef565b925050606085013567ffffffffffffffff8111156139f7576139f66132e8565b5b613a0387828801613405565b91505092959194509250565b60008060008060808587031215613a2957613a286132e3565b5b600085013567ffffffffffffffff811115613a4757613a466132e8565b5b613a5387828801613405565b9450506020613a6487828801613454565b935050604085013567ffffffffffffffff811115613a8557613a846132e8565b5b613a9187828801613405565b9250506060613aa287828801613515565b91505092959194509250565b60008060408385031215613ac557613ac46132e3565b5b600083013567ffffffffffffffff811115613ae357613ae26132e8565b5b613aef85828601613405565b9250506020613b00858286016137ef565b9150509250929050565b6000608082019050613b1f6000830187613646565b613b2c6020830186613586565b8181036040830152613b3e81856135db565b9050613b4d6060830184613661565b95945050505050565b6000602082019050613b6b6000830184613646565b92915050565b600081905092915050565b6000613b8782613595565b613b918185613b71565b9350613ba18185602086016135b1565b80840191505092915050565b6000613bb98284613b7c565b915081905092915050565b7f4f6e6c79206f776e65722063616e20706572666f726d2074686973206163746960008201527f6f6e000000000000000000000000000000000000000000000000000000000000602082015250565b6000613c206022836135a0565b9150613c2b82613bc4565b604082019050919050565b60006020820190508181036000830152613c4f81613c13565b9050919050565b7f4e487b7100000000000000000000000000000000000000000000000000000000600052602260045260246000fd5b60006002820490506001821680613c9d57607f821691505b602082108103613cb057613caf613c56565b5b50919050565b60008190508160005260206000209050919050565b60006020601f8301049050919050565b600082821b905092915050565b600060088302613d187fffffffffffffffffffffffffffffffffffffffffffffffffffffffffffffffff82613cdb565b613d228683613cdb565b95508019841693508086168417925050509392505050565b6000819050919050565b6000613d5f613d5a613d55846134f4565b613d3a565b6134f4565b9050919050565b6000819050919050565b613d7983613d44565b613d8d613d8582613d66565b848454613ce8565b825550505050565b600090565b613da2613d95565b613dad818484613d70565b505050565b5b81811015613dd157613dc6600082613d9a565b600181019050613db3565b5050565b601f821115613e1657613de781613cb6565b613df084613ccb565b81016020851015613dff578190505b613e13613e0b85613ccb565b830182613db2565b50505b505050565b600082821c905092915050565b6000613e3960001984600802613e1b565b1980831691505092915050565b6000613e528383613e28565b9150826002028217905092915050565b613e6b82613595565b67ffffffffffffffff811115613e8457613e83613308565b5b613e8e8254613c85565b613e99828285613dd5565b600060209050601f831160018114613ecc5760008415613eba578287015190505b613ec48582613e46565b865550613f2c565b601f198416613eda86613cb6565b60005b82811015613f0257848901518255600182019150602085019450602081019050613edd565b86831015613f1f5784890151613f1b601f891682613e28565b8355505b6001600288020188555050505b505050505050565b7f52657175657374206e6f7420666f756e64000000000000000000000000000000600082015250565b6000613f6a6011836135a0565b9150613f7582613f34565b602082019050919050565b60006020820190508181036000830152613f9981613f5d565b9050919050565b7f496e76616c696420696e64657800000000000000000000000000000000000000600082015250565b6000613fd6600d836135a0565b9150613fe182613fa0565b602082019050919050565b6000602082019050818103600083015261400581613fc9565b9050919050565b7f4e487b7100000000000000000000000000000000000000000000000000000000600052603260045260246000fd5b7f4f6e6c792061646d696e2063616e20706572666f726d2074686973206163746960008201527f6f6e000000000000000000000000000000000000000000000000000000000000602082015250565b60006140976022836135a0565b91506140a28261403b565b604082019050919050565b600060208201905081810360008301526140c68161408a565b9050919050565b60006040820190506140e26000830185613646565b6140ef6020830184613661565b9392505050565b7f496e76616c696420564320696e64657800000000000000000000000000000000600082015250565b600061412c6010836135a0565b9150614137826140f6565b602082019050919050565b6000602082019050818103600083015261415b8161411f565b9050919050565b7f5643206973206e6f742076616c69640000000000000000000000000000000000600082015250565b6000614198600f836135a0565b91506141a382614162565b602082019050919050565b600060208201905081810360008301526141c78161418b565b9050919050565b7f564320616c726561647920766572696669656400000000000000000000000000600082015250565b60006142046013836135a0565b915061420f826141ce565b602082019050919050565b60006020820190508181036000830152614233816141f7565b9050919050565b7f4f6e6c7920444944206f776e6572206f72205643206973737565722063616e2060008201527f7265717565737420766572696669636174696f6e000000000000000000000000602082015250565b60006142966034836135a0565b91506142a18261423a565b604082019050919050565b600060208201905081810360008301526142c581614289565b9050919050565b7f566572696669636174696f6e207265717565737420616c72656164792065786960008201527f7374730000000000000000000000000000000000000000000000000000000000602082015250565b60006143286023836135a0565b9150614333826142cc565b604082019050919050565b600060208201905081810360008301526143578161431b565b9050919050565b7f546172676574207665726966696572206973206e6f7420747275737465640000600082015250565b6000614394601e836135a0565b915061439f8261435e565b602082019050919050565b600060208201905081810360008301526143c381614387565b9050919050565b7f4e487b7100000000000000000000000000000000000000000000000000000000600052601160045260246000fd5b6000614404826134f4565b91507fffffffffffffffffffffffffffffffffffffffffffffffffffffffffffffffff8203614436576144356143ca565b5b600182019050919050565b600060c0820190506144566000830189613670565b818103602083015261446881886135db565b90506144776040830187613670565b6144846060830186613646565b6144916080830185613646565b81810360a08301526144a381846135db565b9050979650505050505050565b7f444944206e6f7420616374697665000000000000000000000000000000000000600082015250565b60006144e6600e836135a0565b91506144f1826144b0565b602082019050919050565b60006020820190508181036000830152614515816144d9565b9050919050565b7f4f6e6c7920617574686f72697a65642069737375657273206f72206f776e657260008201527f2063616e20697373756520564300000000000000000000000000000000000000602082015250565b6000614578602d836135a0565b91506145838261451c565b604082019050919050565b600060208201905081810360008301526145a78161456b565b9050919050565b600060608201905081810360008301526145c881866135db565b90506145d76020830185613586565b6145e46040830184613646565b949350505050565b7f4f6e6c7920747275737465642076657269666965722063616e20706572666f7260008201527f6d207468697320616374696f6e00000000000000000000000000000000000000602082015250565b6000614648602d836135a0565b9150614653826145ec565b604082019050919050565b600060208201905081810360008301526146778161463b565b9050919050565b7f566572696669636174696f6e207265717565737420616c72656164792070726f60008201527f6365737365640000000000000000000000000000000000000000000000000000602082015250565b60006146da6026836135a0565b91506146e58261467e565b604082019050919050565b60006020820190508181036000830152614709816146cd565b9050919050565b7f4f6e6c79207461726765742076657269666965722063616e207665726966792060008201527f7468697320726571756573740000000000000000000000000000000000000000602082015250565b600061476c602c836135a0565b915061477782614710565b604082019050919050565b6000602082019050818103600083015261479b8161475f565b9050919050565b600060608201905081810360008301526147bc81866135db565b90506147cb6020830185613670565b6147d86040830184613646565b949350505050565b600060408201905081810360008301526147fa81856135db565b90506148096020830184613670565b9392505050565b7f496e76616c69642061646d696e20616464726573730000000000000000000000600082015250565b60006148466015836135a0565b915061485182614810565b602082019050919050565b6000602082019050818103600083015261487581614839565b9050919050565b7f44494420616c7265616479206578697374730000000000000000000000000000600082015250565b60006148b26012836135a0565b91506148bd8261487c565b602082019050919050565b600060208201905081810360008301526148e1816148a5565b9050919050565b6000604082019050818103600083015261490281856135db565b90506149116020830184613646565b9392505050565b7f4f6e6c79207265717565737465722063616e2063616e63656c00000000000000600082015250565b600061494e6019836135a0565b915061495982614918565b602082019050919050565b6000602082019050818103600083015261497d81614941565b9050919050565b7f5265717565737420616c72656164792070726f63657373656400000000000000600082015250565b60006149ba6019836135a0565b91506149c582614984565b602082019050919050565b600060208201905081810360008301526149e9816149ad565b9050919050565b600081546149fd81613c85565b614a078186613b71565b94506001821660008114614a225760018114614a3757614a6a565b60ff1983168652811515820286019350614a6a565b614a4085613cb6565b60005b83811015614a6257815481890152600182019150602081019050614a43565b838801955050505b50505092915050565b6000614a7f82846149f0565b91508190509291505056fea26469706673582212208df2b22ea09af827058c38a32cba6f80ba99f361fb0f37127bf1d1ed7e4c11b864736f6c63430008180033",
  "linkReferences": {},
  "deployedLinkReferences": {}
}