{
  "_format": "hh-sol-artifact-1",
  "contractName": "IdentityManager",
  "sourceName": "contracts/IdentityManager.sol",
  "abi": [
    {
      "anonymous": false,
      "inputs": [
        {
          "indexed": false,
          "internalType": "string",
          "name": "orgID",
          "type": "string"
        },
        {
          "indexed": false,
          "internalType": "address",
          "name": "owner",
          "type": "address"
        }
      ],
      "name": "DIDRegistered",
      "type": "event"
    },
    {
      "anonymous": false,
      "inputs": [
        {
          "indexed": false,
          "internalType": "string",
          "name": "orgID",
          "type": "string"
        },
        {
          "indexed": false,
          "internalType": "address",
          "name": "issuer",
          "type": "address"
        }
      ],
      "name": "IssuerAuthorized",
      "type": "event"
    },
    {
      "anonymous": false,
      "inputs": [
        {
          "indexed": false,
          "internalType": "string",
          "name": "orgID",
          "type": "string"
        },
        {
          "indexed": false,
          "internalType": "bytes32",
          "name": "hashCredential",
          "type": "bytes32"
        },
        {
          "indexed": false,
          "internalType": "address",
          "name": "issuer",
          "type": "address"
        }
      ],
      "name": "VCCreated",
      "type": "event"
    },
    {
      "anonymous": false,
      "inputs": [
        {
          "indexed": false,
          "internalType": "string",
          "name": "orgID",
          "type": "string"
        },
        {
          "indexed": false,
          "internalType": "uint256",
          "name": "index",
          "type": "uint256"
        }
      ],
      "name": "VCRevoked",
      "type": "event"
    },
    {
      "anonymous": false,
      "inputs": [
        {
          "indexed": false,
          "internalType": "string",
          "name": "orgID",
          "type": "string"
        },
        {
          "indexed": false,
          "internalType": "bool",
          "name": "success",
          "type": "bool"
        }
      ],
      "name": "Verified",
      "type": "event"
    },
    {
      "inputs": [
        {
          "internalType": "string",
          "name": "orgID",
          "type": "string"
        },
        {
          "internalType": "address",
          "name": "issuer",
          "type": "address"
        }
      ],
      "name": "authorizeIssuer",
      "outputs": [],
      "stateMutability": "nonpayable",
      "type": "function"
    },
    {
      "inputs": [
        {
          "internalType": "string",
          "name": "",
          "type": "string"
        },
        {
          "internalType": "address",
          "name": "",
          "type": "address"
        }
      ],
      "name": "authorizedIssuers",
      "outputs": [
        {
          "internalType": "bool",
          "name": "",
          "type": "bool"
        }
      ],
      "stateMutability": "view",
      "type": "function"
    },
    {
      "inputs": [
        {
          "internalType": "string",
          "name": "",
          "type": "string"
        },
        {
          "internalType": "uint256",
          "name": "",
          "type": "uint256"
        }
      ],
      "name": "credentials",
      "outputs": [
        {
          "internalType": "bytes32",
          "name": "hashCredential",
          "type": "bytes32"
        },
        {
          "internalType": "string",
          "name": "uri",
          "type": "string"
        },
        {
          "internalType": "address",
          "name": "issuer",
          "type": "address"
        },
        {
          "internalType": "bool",
          "name": "valid",
          "type": "bool"
        }
      ],
      "stateMutability": "view",
      "type": "function"
    },
    {
      "inputs": [
        {
          "internalType": "string",
          "name": "orgID",
          "type": "string"
        }
      ],
      "name": "deactivateDID",
      "outputs": [],
      "stateMutability": "nonpayable",
      "type": "function"
    },
    {
      "inputs": [
        {
          "internalType": "string",
          "name": "",
          "type": "string"
        }
      ],
      "name": "dids",
      "outputs": [
        {
          "internalType": "address",
          "name": "owner",
          "type": "address"
        },
        {
          "internalType": "bytes32",
          "name": "hashData",
          "type": "bytes32"
        },
        {
          "internalType": "string",
          "name": "uri",
          "type": "string"
        },
        {
          "internalType": "bool",
          "name": "active",
          "type": "bool"
        }
      ],
      "stateMutability": "view",
      "type": "function"
    },
    {
      "inputs": [
        {
          "internalType": "string",
          "name": "orgID",
          "type": "string"
        },
        {
          "internalType": "uint256",
          "name": "index",
          "type": "uint256"
        }
      ],
      "name": "getVC",
      "outputs": [
        {
          "internalType": "bytes32",
          "name": "hashCredential",
          "type": "bytes32"
        },
        {
          "internalType": "string",
          "name": "uri",
          "type": "string"
        },
        {
          "internalType": "address",
          "name": "issuer",
          "type": "address"
        },
        {
          "internalType": "bool",
          "name": "valid",
          "type": "bool"
        }
      ],
      "stateMutability": "view",
      "type": "function"
    },
    {
      "inputs": [
        {
          "internalType": "string",
          "name": "orgID",
          "type": "string"
        }
      ],
      "name": "getVCLength",
      "outputs": [
        {
          "internalType": "uint256",
          "name": "",
          "type": "uint256"
        }
      ],
      "stateMutability": "view",
      "type": "function"
    },
    {
      "inputs": [
        {
          "internalType": "string",
          "name": "orgID",
          "type": "string"
        },
        {
          "internalType": "bytes32",
          "name": "hashCredential",
          "type": "bytes32"
        },
        {
          "internalType": "string",
          "name": "uri",
          "type": "string"
        }
      ],
      "name": "issueVC",
      "outputs": [],
      "stateMutability": "nonpayable",
      "type": "function"
    },
    {
      "inputs": [
        {
          "internalType": "string",
          "name": "orgID",
          "type": "string"
        },
        {
          "internalType": "bytes32",
          "name": "hashData",
          "type": "bytes32"
        },
        {
          "internalType": "string",
          "name": "uri",
          "type": "string"
        }
      ],
      "name": "registerDID",
      "outputs": [],
      "stateMutability": "nonpayable",
      "type": "function"
    },
    {
      "inputs": [
        {
          "internalType": "string",
          "name": "orgID",
          "type": "string"
        },
        {
          "internalType": "uint256",
          "name": "index",
          "type": "uint256"
        }
      ],
      "name": "revokeVC",
      "outputs": [],
      "stateMutability": "nonpayable",
      "type": "function"
    },
    {
      "inputs": [
        {
          "internalType": "string",
          "name": "orgID",
          "type": "string"
        },
        {
          "internalType": "bytes32",
          "name": "newHash",
          "type": "bytes32"
        },
        {
          "internalType": "string",
          "name": "newUri",
          "type": "string"
        }
      ],
      "name": "updateDID",
      "outputs": [],
      "stateMutability": "nonpayable",
      "type": "function"
    },
    {
      "inputs": [
        {
          "internalType": "string",
          "name": "orgID",
          "type": "string"
        },
        {
          "internalType": "uint256",
          "name": "index",
          "type": "uint256"
        },
        {
          "internalType": "bytes32",
          "name": "providedHash",
          "type": "bytes32"
        }
      ],
      "name": "verifyVC",
      "outputs": [
        {
          "internalType": "bool",
          "name": "",
          "type": "bool"
        }
      ],
      "stateMutability": "view",
      "type": "function"
    }
  ],
  "bytecode": "0x608060405234801561001057600080fd5b50611ed0806100206000396000f3fe608060405234801561001057600080fd5b50600436106100b45760003560e01c80637586f965116100715780637586f9651461018c57806376c3bbc3146101a85780639ae931a2146101db578063bf4ce54e1461020b578063e3b59a4414610227578063f44ab51614610257576100b4565b80630d963ae1146100b95780630fdb1606146100d55780632e1fe63d146101085780633b253b23146101245780634cfc90f814610140578063700a670214610170575b600080fd5b6100d360048036038101906100ce9190611410565b61028a565b005b6100ef60048036038101906100ea91906114d1565b610395565b6040516100ff9493929190611617565b60405180910390f35b610122600480360381019061011d9190611410565b6104ad565b005b61013e60048036038101906101399190611663565b610784565b005b61015a600480360381019061015591906116ac565b610871565b604051610167919061171b565b60405180910390f35b61018a600480360381019061018591906114d1565b610a4e565b005b6101a660048036038101906101a19190611410565b610bf9565b005b6101c260048036038101906101bd91906114d1565b610dc9565b6040516101d29493929190611617565b60405180910390f35b6101f560048036038101906101f09190611663565b610fb3565b6040516102029190611745565b60405180910390f35b6102256004803603810190610220919061178c565b610fde565b005b610241600480360381019061023c919061178c565b611140565b60405161024e919061171b565b60405180910390f35b610271600480360381019061026c9190611663565b611185565b60405161028194939291906117e8565b60405180910390f35b823373ffffffffffffffffffffffffffffffffffffffff166000826040516102b29190611870565b908152602001604051809103902060000160009054906101000a900473ffffffffffffffffffffffffffffffffffffffff1673ffffffffffffffffffffffffffffffffffffffff161461033a576040517f08c379a0000000000000000000000000000000000000000000000000000000008152600401610331906118f9565b60405180910390fd5b8260008560405161034b9190611870565b908152602001604051809103902060010181905550816000856040516103719190611870565b9081526020016040518091039020600201908161038e9190611b25565b5050505050565b60018280516020810182018051848252602083016020850120818352809550505050505081815481106103c757600080fd5b9060005260206000209060030201600091509150508060000154908060010180546103f190611948565b80601f016020809104026020016040519081016040528092919081815260200182805461041d90611948565b801561046a5780601f1061043f5761010080835404028352916020019161046a565b820191906000526020600020905b81548152906001019060200180831161044d57829003601f168201915b5050505050908060020160009054906101000a900473ffffffffffffffffffffffffffffffffffffffff16908060020160149054906101000a900460ff16905084565b6002836040516104bd9190611870565b908152602001604051809103902060003373ffffffffffffffffffffffffffffffffffffffff1673ffffffffffffffffffffffffffffffffffffffff16815260200190815260200160002060009054906101000a900460ff168061058d57503373ffffffffffffffffffffffffffffffffffffffff166000846040516105439190611870565b908152602001604051809103902060000160009054906101000a900473ffffffffffffffffffffffffffffffffffffffff1673ffffffffffffffffffffffffffffffffffffffff16145b6105cc576040517f08c379a00000000000000000000000000000000000000000000000000000000081526004016105c390611c69565b60405180910390fd5b6000836040516105dc9190611870565b908152602001604051809103902060030160009054906101000a900460ff1661063a576040517f08c379a000000000000000000000000000000000000000000000000000000000815260040161063190611cd5565b60405180910390fd5b60018360405161064a9190611870565b908152602001604051809103902060405180608001604052808481526020018381526020013373ffffffffffffffffffffffffffffffffffffffff1681526020016001151581525090806001815401808255809150506001900390600052602060002090600302016000909190919091506000820151816000015560208201518160010190816106da9190611b25565b5060408201518160020160006101000a81548173ffffffffffffffffffffffffffffffffffffffff021916908373ffffffffffffffffffffffffffffffffffffffff16021790555060608201518160020160146101000a81548160ff02191690831515021790555050507f61d8024384cc7a0975067e55e89fbd854cfc28478f9ee9be8feb1c92009dde7b83833360405161077793929190611cf5565b60405180910390a1505050565b803373ffffffffffffffffffffffffffffffffffffffff166000826040516107ac9190611870565b908152602001604051809103902060000160009054906101000a900473ffffffffffffffffffffffffffffffffffffffff1673ffffffffffffffffffffffffffffffffffffffff1614610834576040517f08c379a000000000000000000000000000000000000000000000000000000000815260040161082b906118f9565b60405180910390fd5b600080836040516108459190611870565b908152602001604051809103902060030160006101000a81548160ff0219169083151502179055505050565b60006001846040516108839190611870565b90815260200160405180910390208054905083106108d6576040517f08c379a00000000000000000000000000000000000000000000000000000000081526004016108cd90611d7f565b60405180910390fd5b60006001856040516108e89190611870565b9081526020016040518091039020848154811061090857610907611d9f565b5b90600052602060002090600302016040518060800160405290816000820154815260200160018201805461093b90611948565b80601f016020809104026020016040519081016040528092919081815260200182805461096790611948565b80156109b45780601f10610989576101008083540402835291602001916109b4565b820191906000526020600020905b81548152906001019060200180831161099757829003601f168201915b505050505081526020016002820160009054906101000a900473ffffffffffffffffffffffffffffffffffffffff1673ffffffffffffffffffffffffffffffffffffffff1673ffffffffffffffffffffffffffffffffffffffff1681526020016002820160149054906101000a900460ff161515151581525050905080606001518015610a445750828160000151145b9150509392505050565b813373ffffffffffffffffffffffffffffffffffffffff16600082604051610a769190611870565b908152602001604051809103902060000160009054906101000a900473ffffffffffffffffffffffffffffffffffffffff1673ffffffffffffffffffffffffffffffffffffffff1614610afe576040517f08c379a0000000000000000000000000000000000000000000000000000000008152600401610af5906118f9565b60405180910390fd5b600183604051610b0e9190611870565b9081526020016040518091039020805490508210610b61576040517f08c379a0000000000000000000000000000000000000000000000000000000008152600401610b5890611d7f565b60405180910390fd5b6000600184604051610b739190611870565b90815260200160405180910390208381548110610b9357610b92611d9f565b5b906000526020600020906003020160020160146101000a81548160ff0219169083151502179055507f487aeade94d29c4cb9f41ec752a329b67cd5d3c1a5628e8064b48042d0a33c8e8383604051610bec929190611dce565b60405180910390a1505050565b600073ffffffffffffffffffffffffffffffffffffffff16600084604051610c219190611870565b908152602001604051809103902060000160009054906101000a900473ffffffffffffffffffffffffffffffffffffffff1673ffffffffffffffffffffffffffffffffffffffff1614610ca9576040517f08c379a0000000000000000000000000000000000000000000000000000000008152600401610ca090611e4a565b60405180910390fd5b60405180608001604052803373ffffffffffffffffffffffffffffffffffffffff16815260200183815260200182815260200160011515815250600084604051610cf39190611870565b908152602001604051809103902060008201518160000160006101000a81548173ffffffffffffffffffffffffffffffffffffffff021916908373ffffffffffffffffffffffffffffffffffffffff160217905550602082015181600101556040820151816002019081610d679190611b25565b5060608201518160030160006101000a81548160ff0219169083151502179055509050507fd59e4d670f6e249831d6f8ce560f47ced54b3f4203e2d0050dc495fd6b919dd28333604051610dbc929190611e6a565b60405180910390a1505050565b60006060600080600186604051610de09190611870565b9081526020016040518091039020805490508510610e33576040517f08c379a0000000000000000000000000000000000000000000000000000000008152600401610e2a90611d7f565b60405180910390fd5b6000600187604051610e459190611870565b90815260200160405180910390208681548110610e6557610e64611d9f565b5b906000526020600020906003020160405180608001604052908160008201548152602001600182018054610e9890611948565b80601f0160208091040260200160405190810160405280929190818152602001828054610ec490611948565b8015610f115780601f10610ee657610100808354040283529160200191610f11565b820191906000526020600020905b815481529060010190602001808311610ef457829003601f168201915b505050505081526020016002820160009054906101000a900473ffffffffffffffffffffffffffffffffffffffff1673ffffffffffffffffffffffffffffffffffffffff1673ffffffffffffffffffffffffffffffffffffffff1681526020016002820160149054906101000a900460ff1615151515815250509050806000015181602001518260400151836060015194509450945094505092959194509250565b6000600182604051610fc59190611870565b9081526020016040518091039020805490509050919050565b813373ffffffffffffffffffffffffffffffffffffffff166000826040516110069190611870565b908152602001604051809103902060000160009054906101000a900473ffffffffffffffffffffffffffffffffffffffff1673ffffffffffffffffffffffffffffffffffffffff161461108e576040517f08c379a0000000000000000000000000000000000000000000000000000000008152600401611085906118f9565b60405180910390fd5b60016002846040516110a09190611870565b908152602001604051809103902060008473ffffffffffffffffffffffffffffffffffffffff1673ffffffffffffffffffffffffffffffffffffffff16815260200190815260200160002060006101000a81548160ff0219169083151502179055507f856abbe6e67b944503a2c4eb69aab351e076728737a07476cea9b4e86ee9ad4a8383604051611133929190611e6a565b60405180910390a1505050565b6002828051602081018201805184825260208301602085012081835280955050505050506020528060005260406000206000915091509054906101000a900460ff1681565b6000818051602081018201805184825260208301602085012081835280955050505050506000915090508060000160009054906101000a900473ffffffffffffffffffffffffffffffffffffffff16908060010154908060020180546111ea90611948565b80601f016020809104026020016040519081016040528092919081815260200182805461121690611948565b80156112635780601f1061123857610100808354040283529160200191611263565b820191906000526020600020905b81548152906001019060200180831161124657829003601f168201915b5050505050908060030160009054906101000a900460ff16905084565b6000604051905090565b600080fd5b600080fd5b600080fd5b600080fd5b6000601f19601f8301169050919050565b7f4e487b7100000000000000000000000000000000000000000000000000000000600052604160045260246000fd5b6112e78261129e565b810181811067ffffffffffffffff82111715611306576113056112af565b5b80604052505050565b6000611319611280565b905061132582826112de565b919050565b600067ffffffffffffffff821115611345576113446112af565b5b61134e8261129e565b9050602081019050919050565b82818337600083830152505050565b600061137d6113788461132a565b61130f565b90508281526020810184848401111561139957611398611299565b5b6113a484828561135b565b509392505050565b600082601f8301126113c1576113c0611294565b5b81356113d184826020860161136a565b91505092915050565b6000819050919050565b6113ed816113da565b81146113f857600080fd5b50565b60008135905061140a816113e4565b92915050565b6000806000606084860312156114295761142861128a565b5b600084013567ffffffffffffffff8111156114475761144661128f565b5b611453868287016113ac565b9350506020611464868287016113fb565b925050604084013567ffffffffffffffff8111156114855761148461128f565b5b611491868287016113ac565b9150509250925092565b6000819050919050565b6114ae8161149b565b81146114b957600080fd5b50565b6000813590506114cb816114a5565b92915050565b600080604083850312156114e8576114e761128a565b5b600083013567ffffffffffffffff8111156115065761150561128f565b5b611512858286016113ac565b9250506020611523858286016114bc565b9150509250929050565b611536816113da565b82525050565b600081519050919050565b600082825260208201905092915050565b60005b8381101561157657808201518184015260208101905061155b565b60008484015250505050565b600061158d8261153c565b6115978185611547565b93506115a7818560208601611558565b6115b08161129e565b840191505092915050565b600073ffffffffffffffffffffffffffffffffffffffff82169050919050565b60006115e6826115bb565b9050919050565b6115f6816115db565b82525050565b60008115159050919050565b611611816115fc565b82525050565b600060808201905061162c600083018761152d565b818103602083015261163e8186611582565b905061164d60408301856115ed565b61165a6060830184611608565b95945050505050565b6000602082840312156116795761167861128a565b5b600082013567ffffffffffffffff8111156116975761169661128f565b5b6116a3848285016113ac565b91505092915050565b6000806000606084860312156116c5576116c461128a565b5b600084013567ffffffffffffffff8111156116e3576116e261128f565b5b6116ef868287016113ac565b9350506020611700868287016114bc565b9250506040611711868287016113fb565b9150509250925092565b60006020820190506117306000830184611608565b92915050565b61173f8161149b565b82525050565b600060208201905061175a6000830184611736565b92915050565b611769816115db565b811461177457600080fd5b50565b60008135905061178681611760565b92915050565b600080604083850312156117a3576117a261128a565b5b600083013567ffffffffffffffff8111156117c1576117c061128f565b5b6117cd858286016113ac565b92505060206117de85828601611777565b9150509250929050565b60006080820190506117fd60008301876115ed565b61180a602083018661152d565b818103604083015261181c8185611582565b905061182b6060830184611608565b95945050505050565b600081905092915050565b600061184a8261153c565b6118548185611834565b9350611864818560208601611558565b80840191505092915050565b600061187c828461183f565b915081905092915050565b7f4f6e6c79206f776e65722063616e20706572666f726d2074686973206163746960008201527f6f6e000000000000000000000000000000000000000000000000000000000000602082015250565b60006118e3602283611547565b91506118ee82611887565b604082019050919050565b60006020820190508181036000830152611912816118d6565b9050919050565b7f4e487b7100000000000000000000000000000000000000000000000000000000600052602260045260246000fd5b6000600282049050600182168061196057607f821691505b60208210810361197357611972611919565b5b50919050565b60008190508160005260206000209050919050565b60006020601f8301049050919050565b600082821b905092915050565b6000600883026119db7fffffffffffffffffffffffffffffffffffffffffffffffffffffffffffffffff8261199e565b6119e5868361199e565b95508019841693508086168417925050509392505050565b6000819050919050565b6000611a22611a1d611a188461149b565b6119fd565b61149b565b9050919050565b6000819050919050565b611a3c83611a07565b611a50611a4882611a29565b8484546119ab565b825550505050565b600090565b611a65611a58565b611a70818484611a33565b505050565b5b81811015611a9457611a89600082611a5d565b600181019050611a76565b5050565b601f821115611ad957611aaa81611979565b611ab38461198e565b81016020851015611ac2578190505b611ad6611ace8561198e565b830182611a75565b50505b505050565b600082821c905092915050565b6000611afc60001984600802611ade565b1980831691505092915050565b6000611b158383611aeb565b9150826002028217905092915050565b611b2e8261153c565b67ffffffffffffffff811115611b4757611b466112af565b5b611b518254611948565b611b5c828285611a98565b600060209050601f831160018114611b8f5760008415611b7d578287015190505b611b878582611b09565b865550611bef565b601f198416611b9d86611979565b60005b82811015611bc557848901518255600182019150602085019450602081019050611ba0565b86831015611be25784890151611bde601f891682611aeb565b8355505b6001600288020188555050505b505050505050565b7f4f6e6c7920617574686f72697a65642069737375657273206f72206f776e657260008201527f2063616e20697373756520564300000000000000000000000000000000000000602082015250565b6000611c53602d83611547565b9150611c5e82611bf7565b604082019050919050565b60006020820190508181036000830152611c8281611c46565b9050919050565b7f444944206e6f7420616374697665000000000000000000000000000000000000600082015250565b6000611cbf600e83611547565b9150611cca82611c89565b602082019050919050565b60006020820190508181036000830152611cee81611cb2565b9050919050565b60006060820190508181036000830152611d0f8186611582565b9050611d1e602083018561152d565b611d2b60408301846115ed565b949350505050565b7f496e76616c696420696e64657800000000000000000000000000000000000000600082015250565b6000611d69600d83611547565b9150611d7482611d33565b602082019050919050565b60006020820190508181036000830152611d9881611d5c565b9050919050565b7f4e487b7100000000000000000000000000000000000000000000000000000000600052603260045260246000fd5b60006040820190508181036000830152611de88185611582565b9050611df76020830184611736565b9392505050565b7f44494420616c7265616479206578697374730000000000000000000000000000600082015250565b6000611e34601283611547565b9150611e3f82611dfe565b602082019050919050565b60006020820190508181036000830152611e6381611e27565b9050919050565b60006040820190508181036000830152611e848185611582565b9050611e9360208301846115ed565b939250505056fea264697066735822122035de3bc3f1a5b85785d1bcaf363c7602a9a0b8f0bb167bcc28fa06bd62c768b564736f6c63430008180033",
  "linkReferences": {},
  "deployedLinkReferences": {}
}